{
  "address": "0xAF4dE0dD77501017cB41E56644b34eAd21d114b7",
  "abi": [
    {
      "inputs": [
        {
          "internalType": "address",
          "name": "_identityRegistry",
          "type": "address"
        },
        {
          "internalType": "address",
          "name": "_reputationRegistry",
          "type": "address"
        },
        {
          "internalType": "address",
          "name": "_validationRegistry",
          "type": "address"
        }
      ],
      "stateMutability": "nonpayable",
      "type": "constructor"
    },
    {
      "inputs": [
        {
          "internalType": "address",
          "name": "owner",
          "type": "address"
        }
      ],
      "name": "OwnableInvalidOwner",
      "type": "error"
    },
    {
      "inputs": [
        {
          "internalType": "address",
          "name": "account",
          "type": "address"
        }
      ],
      "name": "OwnableUnauthorizedAccount",
      "type": "error"
    },
    {
      "inputs": [],
      "name": "ReentrancyGuardReentrantCall",
      "type": "error"
    },
    {
      "anonymous": false,
      "inputs": [
        {
          "indexed": true,
          "internalType": "uint256",
          "name": "agentId",
          "type": "uint256"
        },
        {
          "indexed": false,
          "internalType": "string",
          "name": "agentCardLink",
          "type": "string"
        },
        {
          "indexed": true,
          "internalType": "address",
          "name": "owner",
          "type": "address"
        },
        {
          "indexed": false,
          "internalType": "uint256",
          "name": "timestamp",
          "type": "uint256"
        }
      ],
      "name": "AgentListed",
      "type": "event"
    },
    {
      "anonymous": false,
      "inputs": [
        {
          "indexed": true,
          "internalType": "uint256",
          "name": "agentId",
          "type": "uint256"
        },
        {
          "indexed": true,
          "internalType": "address",
          "name": "owner",
          "type": "address"
        }
      ],
      "name": "AgentUnlisted",
      "type": "event"
    },
    {
      "anonymous": false,
      "inputs": [
        {
          "indexed": true,
          "internalType": "uint256",
          "name": "agentId",
          "type": "uint256"
        },
        {
          "indexed": true,
          "internalType": "address",
          "name": "user",
          "type": "address"
        },
        {
          "indexed": false,
          "internalType": "uint256",
          "name": "timestamp",
          "type": "uint256"
        }
      ],
      "name": "AgentUsed",
      "type": "event"
    },
    {
      "anonymous": false,
      "inputs": [
        {
          "indexed": true,
          "internalType": "address",
          "name": "previousOwner",
          "type": "address"
        },
        {
          "indexed": true,
          "internalType": "address",
          "name": "newOwner",
          "type": "address"
        }
      ],
      "name": "OwnershipTransferred",
      "type": "event"
    },
    {
      "inputs": [
        {
          "internalType": "uint256",
          "name": "",
          "type": "uint256"
        }
      ],
      "name": "allListedAgents",
      "outputs": [
        {
          "internalType": "uint256",
          "name": "",
          "type": "uint256"
        }
      ],
      "stateMutability": "view",
      "type": "function"
    },
    {
      "inputs": [
        {
          "internalType": "uint256",
          "name": "agentId",
          "type": "uint256"
        }
      ],
      "name": "getAgentFullInfo",
      "outputs": [
        {
          "components": [
            {
              "internalType": "uint256",
              "name": "agentId",
              "type": "uint256"
            },
            {
              "internalType": "string",
              "name": "agentCardLink",
              "type": "string"
            },
            {
              "internalType": "address",
              "name": "owner",
              "type": "address"
            },
            {
              "internalType": "bool",
              "name": "listed",
              "type": "bool"
            },
            {
              "internalType": "uint256",
              "name": "listedAt",
              "type": "uint256"
            },
            {
              "internalType": "uint256",
              "name": "usageCount",
              "type": "uint256"
            }
          ],
          "internalType": "struct AgentStore.AgentListing",
          "name": "listing",
          "type": "tuple"
        },
        {
          "components": [
            {
              "internalType": "address",
              "name": "owner",
              "type": "address"
            },
            {
              "internalType": "string",
              "name": "metadataURI",
              "type": "string"
            },
            {
              "internalType": "uint256",
              "name": "createdAt",
              "type": "uint256"
            },
            {
              "internalType": "bool",
              "name": "active",
              "type": "bool"
            }
          ],
          "internalType": "struct IdentityRegistry.AgentIdentity",
          "name": "identity",
          "type": "tuple"
        },
        {
          "internalType": "uint256",
          "name": "averageRating",
          "type": "uint256"
        },
        {
          "internalType": "uint256",
          "name": "feedbackCount",
          "type": "uint256"
        }
      ],
      "stateMutability": "view",
      "type": "function"
    },
    {
      "inputs": [],
      "name": "getAllListedAgents",
      "outputs": [
        {
          "internalType": "uint256[]",
          "name": "agentIds",
          "type": "uint256[]"
        }
      ],
      "stateMutability": "view",
      "type": "function"
    },
    {
      "inputs": [],
      "name": "identityRegistry",
      "outputs": [
        {
          "internalType": "contract IdentityRegistry",
          "name": "",
          "type": "address"
        }
      ],
      "stateMutability": "view",
      "type": "function"
    },
    {
      "inputs": [
        {
          "internalType": "uint256",
          "name": "",
          "type": "uint256"
        }
      ],
      "name": "listings",
      "outputs": [
        {
          "internalType": "uint256",
          "name": "agentId",
          "type": "uint256"
        },
        {
          "internalType": "string",
          "name": "agentCardLink",
          "type": "string"
        },
        {
          "internalType": "address",
          "name": "owner",
          "type": "address"
        },
        {
          "internalType": "bool",
          "name": "listed",
          "type": "bool"
        },
        {
          "internalType": "uint256",
          "name": "listedAt",
          "type": "uint256"
        },
        {
          "internalType": "uint256",
          "name": "usageCount",
          "type": "uint256"
        }
      ],
      "stateMutability": "view",
      "type": "function"
    },
    {
      "inputs": [],
      "name": "owner",
      "outputs": [
        {
          "internalType": "address",
          "name": "",
          "type": "address"
        }
      ],
      "stateMutability": "view",
      "type": "function"
    },
    {
      "inputs": [
        {
          "internalType": "uint256",
          "name": "agentId",
          "type": "uint256"
        }
      ],
      "name": "recordUsage",
      "outputs": [],
      "stateMutability": "nonpayable",
      "type": "function"
    },
    {
      "inputs": [
        {
          "internalType": "string",
          "name": "agentCardLink",
          "type": "string"
        }
      ],
      "name": "registerAndListAgent",
      "outputs": [
        {
          "internalType": "uint256",
          "name": "agentId",
          "type": "uint256"
        }
      ],
      "stateMutability": "nonpayable",
      "type": "function"
    },
    {
      "inputs": [],
      "name": "renounceOwnership",
      "outputs": [],
      "stateMutability": "nonpayable",
      "type": "function"
    },
    {
      "inputs": [],
      "name": "reputationRegistry",
      "outputs": [
        {
          "internalType": "contract ReputationRegistry",
          "name": "",
          "type": "address"
        }
      ],
      "stateMutability": "view",
      "type": "function"
    },
    {
      "inputs": [
        {
          "internalType": "string",
          "name": "",
          "type": "string"
        },
        {
          "internalType": "uint256",
          "name": "",
          "type": "uint256"
        }
      ],
      "name": "searchIndex",
      "outputs": [
        {
          "internalType": "uint256",
          "name": "",
          "type": "uint256"
        }
      ],
      "stateMutability": "view",
      "type": "function"
    },
    {
      "inputs": [
        {
          "internalType": "uint256",
          "name": "agentId",
          "type": "uint256"
        },
        {
          "internalType": "uint8",
          "name": "rating",
          "type": "uint8"
        },
        {
          "internalType": "string",
          "name": "comment",
          "type": "string"
        }
      ],
      "name": "submitRating",
      "outputs": [],
      "stateMutability": "nonpayable",
      "type": "function"
    },
    {
      "inputs": [
        {
          "internalType": "address",
          "name": "newOwner",
          "type": "address"
        }
      ],
      "name": "transferOwnership",
      "outputs": [],
      "stateMutability": "nonpayable",
      "type": "function"
    },
    {
      "inputs": [
        {
          "internalType": "uint256",
          "name": "agentId",
          "type": "uint256"
        }
      ],
      "name": "unlistAgent",
      "outputs": [],
      "stateMutability": "nonpayable",
      "type": "function"
    },
    {
      "inputs": [
        {
          "internalType": "uint256",
          "name": "agentId",
          "type": "uint256"
        },
        {
          "internalType": "string",
          "name": "agentCardLink",
          "type": "string"
        }
      ],
      "name": "updateAgentCardLink",
      "outputs": [],
      "stateMutability": "nonpayable",
      "type": "function"
    },
    {
      "inputs": [],
      "name": "validationRegistry",
      "outputs": [
        {
          "internalType": "contract ValidationRegistry",
          "name": "",
          "type": "address"
        }
      ],
      "stateMutability": "view",
      "type": "function"
    }
  ],
  "transactionHash": "0x67948aa7a9216f824bad3c1727dcba64aea44f30aaaac2f0b6a383e34b049880",
  "args": [
    "0x8b2fA898fd4D0f7893B1dfb42b690b3352670dEf",
    "0xa678cbEF73eDBcF570fd52e37fC9b26d496c5f82",
    "0xcDC4794790D88deB28d9FF8E77a7fA0016F9EEFd"
  ],
  "numDeployments": 2,
  "solcInputHash": "7340a2411319974e58f3c97fac7905d3",
  "bytecode": "0x60806040523480156200001157600080fd5b506040516200163338038062001633833981016040819052620000349162000252565b33806200005c57604051631e4fbdf760e01b8152600060048201526024015b60405180910390fd5b6200006781620001e5565b50600180556001600160a01b038316620000d25760405162461bcd60e51b815260206004820152602560248201527f4167656e7453746f72653a20496e76616c6964206964656e7469747920726567604482015264697374727960d81b606482015260840162000053565b6001600160a01b0382166200013a5760405162461bcd60e51b815260206004820152602760248201527f4167656e7453746f72653a20496e76616c69642072657075746174696f6e20726044820152666567697374727960c81b606482015260840162000053565b6001600160a01b038116620001a25760405162461bcd60e51b815260206004820152602760248201527f4167656e7453746f72653a20496e76616c69642076616c69646174696f6e20726044820152666567697374727960c81b606482015260840162000053565b600280546001600160a01b039485166001600160a01b0319918216179091556003805493851693821693909317909255600480549190931691161790556200029c565b600080546001600160a01b038381166001600160a01b0319831681178455604051919092169283917f8be0079c531659141344cd1fd0a4f28419497f9722a3daafe3b4186f6b6457e09190a35050565b80516001600160a01b03811681146200024d57600080fd5b919050565b6000806000606084860312156200026857600080fd5b620002738462000235565b9250620002836020850162000235565b9150620002936040850162000235565b90509250925092565b61138780620002ac6000396000f3fe608060405234801561001057600080fd5b50600436106101005760003560e01c80639c29c27211610097578063c8db44e311610066578063c8db44e31461021f578063da448d7b14610232578063de74e57b14610245578063f2fde38b1461026a57600080fd5b80639c29c272146101d3578063af648e12146101e6578063b3c8f297146101f9578063c0fb1e771461020c57600080fd5b8063320e2795116100d3578063320e2795146101925780634c6b993a146101a7578063715018a6146101ba5780638da5cb5b146101c257600080fd5b80630d7f31dd146101055780631154c3fe14610123578063134e18f4146101465780631496485714610171575b600080fd5b61010d61027d565b60405161011a9190610c47565b60405180910390f35b610136610131366004610c8b565b6102d5565b60405161011a9493929190610d3d565b600254610159906001600160a01b031681565b6040516001600160a01b03909116815260200161011a565b61018461017f366004610c8b565b610533565b60405190815260200161011a565b6101a56101a0366004610c8b565b610554565b005b600454610159906001600160a01b031681565b6101a5610628565b6000546001600160a01b0316610159565b6101846101e1366004610eaf565b61063c565b6101a56101f4366004610ef4565b61067c565b610184610207366004610f53565b6106e7565b6101a561021a366004610f90565b61088c565b600354610159906001600160a01b031681565b6101a5610240366004610c8b565b61097f565b610258610253366004610c8b565b610a98565b60405161011a96959493929190610fd7565b6101a5610278366004611033565b610b65565b606060068054806020026020016040519081016040528092919081815260200182805480156102cb57602002820191906000526020600020905b8154815260200190600101908083116102b7575b5050505050905090565b6103196040518060c00160405280600081526020016060815260200160006001600160a01b0316815260200160001515815260200160008152602001600081525090565b61034f604051806080016040528060006001600160a01b0316815260200160608152602001600081526020016000151581525090565b6000838152600560209081526040808320815160c081019092528054825260018101805485948401919061038290611057565b80601f01602080910402602001604051908101604052809291908181526020018280546103ae90611057565b80156103fb5780601f106103d0576101008083540402835291602001916103fb565b820191906000526020600020905b8154815290600101906020018083116103de57829003601f168201915b50505091835250506002828101546001600160a01b038082166020850152600160a01b90910460ff16151560408085019190915260038501546060850152600494850154608090940193909352905491516312f3a11d60e01b8152928301899052929650909116906312f3a11d90602401600060405180830381865afa158015610489573d6000803e3d6000fd5b505050506040513d6000823e601f3d908101601f191682016040526104b191908101906110a1565b6003546040516389370d8b60e01b81526004810188905291945060009182916001600160a01b0316906389370d8b90602401606060405180830381865afa158015610500573d6000803e3d6000fd5b505050506040513d601f19601f820116820180604052508101906105249190611174565b97999698509695945050505050565b6006818154811061054357600080fd5b600091825260209091200154905081565b61055c610ba0565b60008181526005602052604090206002810154600160a01b900460ff166105ca5760405162461bcd60e51b815260206004820152601c60248201527f4167656e7453746f72653a204167656e74206e6f74206c69737465640000000060448201526064015b60405180910390fd5b60018160040160008282546105df91906111a2565b9091555050604051428152339083907f6d78589f324fefee4a0445a95d0fa6b8df8211e6f679d4b4b04d98d2d9f0ab7c9060200160405180910390a35061062560018055565b50565b610630610bca565b61063a6000610bf7565b565b8151602081840181018051600782529282019185019190912091905280548290811061066757600080fd5b90600052602060002001600091509150505481565b600354604051630e7fe54760e41b81526001600160a01b039091169063e7fe5470906106b0908690869086906004016111c9565b600060405180830381600087803b1580156106ca57600080fd5b505af11580156106de573d6000803e3d6000fd5b50505050505050565b60006106f1610ba0565b600254604051632d2a958560e01b81526001600160a01b0390911690632d2a9585906107219085906004016111f4565b6020604051808303816000875af1158015610740573d6000803e3d6000fd5b505050506040513d601f19601f820116820180604052508101906107649190611207565b6040805160c08101825282815260208082018681523383850152600160608401819052426080850152600060a08501819052868152600590935293909120825181559051939450909290918201906107bc908261126f565b5060408281015160028301805460608601511515600160a01b026001600160a81b03199091166001600160a01b03909316929092179190911790556080830151600383015560a090920151600490910155600680546001810182556000919091527ff652222313e28459528d920b65115c16c04f3efc82aaedc97be59f3f377c0d3f0182905551339082907fe4b959307ddc361ebc8a5b0fdd0150d1a4ed6197ddf8bb6251f37bacfa4614fa90610876908690429061132f565b60405180910390a361088760018055565b919050565b610894610ba0565b6000828152600560205260409020600201546001600160a01b031633146108f55760405162461bcd60e51b815260206004820152601560248201527420b3b2b73a29ba37b9329d102737ba1037bbb732b960591b60448201526064016105c1565b600082815260056020526040902060020154600160a01b900460ff166109565760405162461bcd60e51b81526020600482015260166024820152751059d95b9d14dd1bdc994e88139bdd081b1a5cdd195960521b60448201526064016105c1565b6000828152600560205260409020600101610971828261126f565b5061097b60018055565b5050565b610987610ba0565b6000818152600560205260409020600201546001600160a01b031633146109e85760405162461bcd60e51b815260206004820152601560248201527420b3b2b73a29ba37b9329d102737ba1037bbb732b960591b60448201526064016105c1565b600081815260056020526040902060020154600160a01b900460ff16610a495760405162461bcd60e51b81526020600482015260166024820152751059d95b9d14dd1bdc994e88139bdd081b1a5cdd195960521b60448201526064016105c1565b600081815260056020526040808220600201805460ff60a01b1916905551339183917f614f45e430d0ebaaade722fa9de95b9eb2651a5e6671fb7fec7a417181fe23af9190a361062560018055565b60056020526000908152604090208054600182018054919291610aba90611057565b80601f0160208091040260200160405190810160405280929190818152602001828054610ae690611057565b8015610b335780601f10610b0857610100808354040283529160200191610b33565b820191906000526020600020905b815481529060010190602001808311610b1657829003601f168201915b505050506002830154600384015460049094015492936001600160a01b03821693600160a01b90920460ff1692509086565b610b6d610bca565b6001600160a01b038116610b9757604051631e4fbdf760e01b8152600060048201526024016105c1565b61062581610bf7565b600260015403610bc357604051633ee5aeb560e01b815260040160405180910390fd5b6002600155565b6000546001600160a01b0316331461063a5760405163118cdaa760e01b81523360048201526024016105c1565b600080546001600160a01b038381166001600160a01b0319831681178455604051919092169283917f8be0079c531659141344cd1fd0a4f28419497f9722a3daafe3b4186f6b6457e09190a35050565b6020808252825182820181905260009190848201906040850190845b81811015610c7f57835183529284019291840191600101610c63565b50909695505050505050565b600060208284031215610c9d57600080fd5b5035919050565b60005b83811015610cbf578181015183820152602001610ca7565b50506000910152565b60008151808452610ce0816020860160208601610ca4565b601f01601f19169290920160200192915050565b60018060a01b0381511682526000602082015160806020850152610d1b6080850182610cc8565b9050604083015160408501526060830151151560608501528091505092915050565b60808152845160808201526000602086015160c060a0840152610d64610140840182610cc8565b60408801516001600160a01b031660c08501526060880151151560e0850152608088015161010085015260a088015161012085015283810360208501529050610dad8187610cf4565b604084019590955250506060015292915050565b634e487b7160e01b600052604160045260246000fd5b6040516080810167ffffffffffffffff81118282101715610dfa57610dfa610dc1565b60405290565b604051601f8201601f1916810167ffffffffffffffff81118282101715610e2957610e29610dc1565b604052919050565b600067ffffffffffffffff821115610e4b57610e4b610dc1565b50601f01601f191660200190565b600082601f830112610e6a57600080fd5b8135610e7d610e7882610e31565b610e00565b818152846020838601011115610e9257600080fd5b816020850160208301376000918101602001919091529392505050565b60008060408385031215610ec257600080fd5b823567ffffffffffffffff811115610ed957600080fd5b610ee585828601610e59565b95602094909401359450505050565b600080600060608486031215610f0957600080fd5b83359250602084013560ff81168114610f2157600080fd5b9150604084013567ffffffffffffffff811115610f3d57600080fd5b610f4986828701610e59565b9150509250925092565b600060208284031215610f6557600080fd5b813567ffffffffffffffff811115610f7c57600080fd5b610f8884828501610e59565b949350505050565b60008060408385031215610fa357600080fd5b82359150602083013567ffffffffffffffff811115610fc157600080fd5b610fcd85828601610e59565b9150509250929050565b86815260c060208201526000610ff060c0830188610cc8565b6001600160a01b03969096166040830152509215156060840152608083019190915260a09091015292915050565b6001600160a01b038116811461062557600080fd5b60006020828403121561104557600080fd5b81356110508161101e565b9392505050565b600181811c9082168061106b57607f821691505b60208210810361108b57634e487b7160e01b600052602260045260246000fd5b50919050565b8051801515811461088757600080fd5b600060208083850312156110b457600080fd5b825167ffffffffffffffff808211156110cc57600080fd5b90840190608082870312156110e057600080fd5b6110e8610dd7565b82516110f38161101e565b8152828401518281111561110657600080fd5b83019150601f8201871361111957600080fd5b8151611127610e7882610e31565b818152888683860101111561113b57600080fd5b61114a82878301888701610ca4565b82860152506040838101519082015261116560608401611091565b60608201529695505050505050565b60008060006060848603121561118957600080fd5b8351925060208401519150604084015190509250925092565b808201808211156111c357634e487b7160e01b600052601160045260246000fd5b92915050565b83815260ff831660208201526060604082015260006111eb6060830184610cc8565b95945050505050565b6020815260006110506020830184610cc8565b60006020828403121561121957600080fd5b5051919050565b601f82111561126a57600081815260208120601f850160051c810160208610156112475750805b601f850160051c820191505b8181101561126657828155600101611253565b5050505b505050565b815167ffffffffffffffff81111561128957611289610dc1565b61129d816112978454611057565b84611220565b602080601f8311600181146112d257600084156112ba5750858301515b600019600386901b1c1916600185901b178555611266565b600085815260208120601f198616915b82811015611301578886015182559484019460019091019084016112e2565b508582101561131f5787850151600019600388901b60f8161c191681555b5050505050600190811b01905550565b6040815260006113426040830185610cc8565b9050826020830152939250505056fea2646970667358221220143e5ee20cc7ec9e61ad5761486fd250b7fa0e7b44e1203127b4dd2ac0376a0464736f6c63430008140033",
  "devdoc": {
    "details": " Agent  OpenZeppelin Ownable, ReentrancyGuard  Address ",
    "errors": {
      "OwnableInvalidOwner(address)": [
        {
          "details": "The owner is not a valid owner account. (eg. `address(0)`)"
        }
      ],
      "OwnableUnauthorizedAccount(address)": [
        {
          "details": "The caller account is not authorized to perform an operation."
        }
      ],
      "ReentrancyGuardReentrantCall()": [
        {
          "details": "Unauthorized reentrant call."
        }
      ]
    },
    "kind": "dev",
    "methods": {
      "getAgentFullInfo(uint256)": {
        "params": {
          "agentId": "Agent ID"
        },
        "returns": {
          "averageRating": " 1000 ",
          "feedbackCount": "",
          "identity": "",
          "listing": ""
        }
      },
      "getAllListedAgents()": {
        "returns": {
          "agentIds": "Agent ID "
        }
      },
      "owner()": {
        "details": "Returns the address of the current owner."
      },
      "recordUsage(uint256)": {
        "details": " nonReentrant  PaymentSBT ",
        "params": {
          "agentId": "Agent ID"
        }
      },
      "registerAndListAgent(string)": {
        "details": " nonReentrant ",
        "params": {
          "agentCardLink": "AgentCard  Agent Card "
        },
        "returns": {
          "agentId": " Agent ID"
        }
      },
      "renounceOwnership()": {
        "details": "Leaves the contract without owner. It will not be possible to call `onlyOwner` functions. Can only be called by the current owner. NOTE: Renouncing ownership will leave the contract without an owner, thereby disabling any functionality that is only available to the owner."
      },
      "submitRating(uint256,uint8,string)": {
        "params": {
          "agentId": "Agent ID",
          "comment": "",
          "rating": " (1-5)"
        }
      },
      "transferOwnership(address)": {
        "details": "Transfers ownership of the contract to a new account (`newOwner`). Can only be called by the current owner."
      },
      "unlistAgent(uint256)": {
        "details": " nonReentrant ",
        "params": {
          "agentId": "Agent ID"
        }
      },
      "updateAgentCardLink(uint256,string)": {
        "details": " nonReentrant ",
        "params": {
          "agentCardLink": " AgentCard ",
          "agentId": "Agent ID"
        }
      }
    },
    "title": "AgentStore",
    "version": 1
  },
  "userdoc": {
    "kind": "user",
    "methods": {
      "getAgentFullInfo(uint256)": {
        "notice": " Agent "
      },
      "getAllListedAgents()": {
        "notice": " Agents"
      },
      "recordUsage(uint256)": {
        "notice": " Agent  Agent Card  PaymentSBT "
      },
      "registerAndListAgent(string)": {
        "notice": " Agent AgentCard "
      },
      "submitRating(uint256,uint8,string)": {
        "notice": ""
      },
      "unlistAgent(uint256)": {
        "notice": " Agent"
      },
      "updateAgentCardLink(uint256,string)": {
        "notice": " Agent  AgentCard "
      }
    },
    "notice": "Agent  EIP-8004 ",
    "version": 1
  },
  "storageLayout": {
    "storage": [
      {
        "astId": 8,
        "contract": "contracts/AgentStore.sol:AgentStore",
        "label": "_owner",
        "offset": 0,
        "slot": "0",
        "type": "t_address"
      },
      {
        "astId": 441,
        "contract": "contracts/AgentStore.sol:AgentStore",
        "label": "_status",
        "offset": 0,
        "slot": "1",
        "type": "t_uint256"
      },
      {
        "astId": 518,
        "contract": "contracts/AgentStore.sol:AgentStore",
        "label": "identityRegistry",
        "offset": 0,
        "slot": "2",
        "type": "t_contract(IdentityRegistry)1126"
      },
      {
        "astId": 521,
        "contract": "contracts/AgentStore.sol:AgentStore",
        "label": "reputationRegistry",
        "offset": 0,
        "slot": "3",
        "type": "t_contract(ReputationRegistry)1343"
      },
      {
        "astId": 524,
        "contract": "contracts/AgentStore.sol:AgentStore",
        "label": "validationRegistry",
        "offset": 0,
        "slot": "4",
        "type": "t_contract(ValidationRegistry)1671"
      },
      {
        "astId": 542,
        "contract": "contracts/AgentStore.sol:AgentStore",
        "label": "listings",
        "offset": 0,
        "slot": "5",
        "type": "t_mapping(t_uint256,t_struct(AgentListing)537_storage)"
      },
      {
        "astId": 545,
        "contract": "contracts/AgentStore.sol:AgentStore",
        "label": "allListedAgents",
        "offset": 0,
        "slot": "6",
        "type": "t_array(t_uint256)dyn_storage"
      },
      {
        "astId": 550,
        "contract": "contracts/AgentStore.sol:AgentStore",
        "label": "searchIndex",
        "offset": 0,
        "slot": "7",
        "type": "t_mapping(t_string_memory_ptr,t_array(t_uint256)dyn_storage)"
      }
    ],
    "types": {
      "t_address": {
        "encoding": "inplace",
        "label": "address",
        "numberOfBytes": "20"
      },
      "t_array(t_uint256)dyn_storage": {
        "base": "t_uint256",
        "encoding": "dynamic_array",
        "label": "uint256[]",
        "numberOfBytes": "32"
      },
      "t_bool": {
        "encoding": "inplace",
        "label": "bool",
        "numberOfBytes": "1"
      },
      "t_contract(IdentityRegistry)1126": {
        "encoding": "inplace",
        "label": "contract IdentityRegistry",
        "numberOfBytes": "20"
      },
      "t_contract(ReputationRegistry)1343": {
        "encoding": "inplace",
        "label": "contract ReputationRegistry",
        "numberOfBytes": "20"
      },
      "t_contract(ValidationRegistry)1671": {
        "encoding": "inplace",
        "label": "contract ValidationRegistry",
        "numberOfBytes": "20"
      },
      "t_mapping(t_string_memory_ptr,t_array(t_uint256)dyn_storage)": {
        "encoding": "mapping",
        "key": "t_string_memory_ptr",
        "label": "mapping(string => uint256[])",
        "numberOfBytes": "32",
        "value": "t_array(t_uint256)dyn_storage"
      },
      "t_mapping(t_uint256,t_struct(AgentListing)537_storage)": {
        "encoding": "mapping",
        "key": "t_uint256",
        "label": "mapping(uint256 => struct AgentStore.AgentListing)",
        "numberOfBytes": "32",
        "value": "t_struct(AgentListing)537_storage"
      },
      "t_string_memory_ptr": {
        "encoding": "bytes",
        "label": "string",
        "numberOfBytes": "32"
      },
      "t_string_storage": {
        "encoding": "bytes",
        "label": "string",
        "numberOfBytes": "32"
      },
      "t_struct(AgentListing)537_storage": {
        "encoding": "inplace",
        "label": "struct AgentStore.AgentListing",
        "members": [
          {
            "astId": 526,
            "contract": "contracts/AgentStore.sol:AgentStore",
            "label": "agentId",
            "offset": 0,
            "slot": "0",
            "type": "t_uint256"
          },
          {
            "astId": 528,
            "contract": "contracts/AgentStore.sol:AgentStore",
            "label": "agentCardLink",
            "offset": 0,
            "slot": "1",
            "type": "t_string_storage"
          },
          {
            "astId": 530,
            "contract": "contracts/AgentStore.sol:AgentStore",
            "label": "owner",
            "offset": 0,
            "slot": "2",
            "type": "t_address"
          },
          {
            "astId": 532,
            "contract": "contracts/AgentStore.sol:AgentStore",
            "label": "listed",
            "offset": 20,
            "slot": "2",
            "type": "t_bool"
          },
          {
            "astId": 534,
            "contract": "contracts/AgentStore.sol:AgentStore",
            "label": "listedAt",
            "offset": 0,
            "slot": "3",
            "type": "t_uint256"
          },
          {
            "astId": 536,
            "contract": "contracts/AgentStore.sol:AgentStore",
            "label": "usageCount",
            "offset": 0,
            "slot": "4",
            "type": "t_uint256"
          }
        ],
        "numberOfBytes": "160"
      },
      "t_uint256": {
        "encoding": "inplace",
        "label": "uint256",
        "numberOfBytes": "32"
      }
    }
  }
}