{
  "address": "0x8b2fA898fd4D0f7893B1dfb42b690b3352670dEf",
  "abi": [
    {
      "inputs": [],
      "stateMutability": "nonpayable",
      "type": "constructor"
    },
    {
      "inputs": [
        {
          "internalType": "address",
          "name": "owner",
          "type": "address"
        }
      ],
      "name": "OwnableInvalidOwner",
      "type": "error"
    },
    {
      "inputs": [
        {
          "internalType": "address",
          "name": "account",
          "type": "address"
        }
      ],
      "name": "OwnableUnauthorizedAccount",
      "type": "error"
    },
    {
      "inputs": [],
      "name": "ReentrancyGuardReentrantCall",
      "type": "error"
    },
    {
      "anonymous": false,
      "inputs": [
        {
          "indexed": true,
          "internalType": "uint256",
          "name": "agentId",
          "type": "uint256"
        },
        {
          "indexed": true,
          "internalType": "address",
          "name": "owner",
          "type": "address"
        }
      ],
      "name": "AgentDeactivated",
      "type": "event"
    },
    {
      "anonymous": false,
      "inputs": [
        {
          "indexed": true,
          "internalType": "uint256",
          "name": "agentId",
          "type": "uint256"
        },
        {
          "indexed": true,
          "internalType": "address",
          "name": "owner",
          "type": "address"
        },
        {
          "indexed": false,
          "internalType": "string",
          "name": "metadataURI",
          "type": "string"
        },
        {
          "indexed": false,
          "internalType": "uint256",
          "name": "timestamp",
          "type": "uint256"
        }
      ],
      "name": "AgentRegistered",
      "type": "event"
    },
    {
      "anonymous": false,
      "inputs": [
        {
          "indexed": true,
          "internalType": "uint256",
          "name": "agentId",
          "type": "uint256"
        },
        {
          "indexed": true,
          "internalType": "address",
          "name": "owner",
          "type": "address"
        },
        {
          "indexed": false,
          "internalType": "string",
          "name": "newMetadataURI",
          "type": "string"
        }
      ],
      "name": "AgentUpdated",
      "type": "event"
    },
    {
      "anonymous": false,
      "inputs": [
        {
          "indexed": true,
          "internalType": "address",
          "name": "previousOwner",
          "type": "address"
        },
        {
          "indexed": true,
          "internalType": "address",
          "name": "newOwner",
          "type": "address"
        }
      ],
      "name": "OwnershipTransferred",
      "type": "event"
    },
    {
      "inputs": [
        {
          "internalType": "uint256",
          "name": "agentId",
          "type": "uint256"
        }
      ],
      "name": "agentExists",
      "outputs": [
        {
          "internalType": "bool",
          "name": "exists",
          "type": "bool"
        }
      ],
      "stateMutability": "view",
      "type": "function"
    },
    {
      "inputs": [
        {
          "internalType": "uint256",
          "name": "agentId",
          "type": "uint256"
        }
      ],
      "name": "deactivateAgent",
      "outputs": [],
      "stateMutability": "nonpayable",
      "type": "function"
    },
    {
      "inputs": [
        {
          "internalType": "uint256",
          "name": "agentId",
          "type": "uint256"
        }
      ],
      "name": "getAgentIdentity",
      "outputs": [
        {
          "components": [
            {
              "internalType": "address",
              "name": "owner",
              "type": "address"
            },
            {
              "internalType": "string",
              "name": "metadataURI",
              "type": "string"
            },
            {
              "internalType": "uint256",
              "name": "createdAt",
              "type": "uint256"
            },
            {
              "internalType": "bool",
              "name": "active",
              "type": "bool"
            }
          ],
          "internalType": "struct IdentityRegistry.AgentIdentity",
          "name": "identity",
          "type": "tuple"
        }
      ],
      "stateMutability": "view",
      "type": "function"
    },
    {
      "inputs": [
        {
          "internalType": "address",
          "name": "owner",
          "type": "address"
        }
      ],
      "name": "getOwnerAgents",
      "outputs": [
        {
          "internalType": "uint256[]",
          "name": "agentIds",
          "type": "uint256[]"
        }
      ],
      "stateMutability": "view",
      "type": "function"
    },
    {
      "inputs": [
        {
          "internalType": "uint256",
          "name": "",
          "type": "uint256"
        }
      ],
      "name": "identities",
      "outputs": [
        {
          "internalType": "address",
          "name": "owner",
          "type": "address"
        },
        {
          "internalType": "string",
          "name": "metadataURI",
          "type": "string"
        },
        {
          "internalType": "uint256",
          "name": "createdAt",
          "type": "uint256"
        },
        {
          "internalType": "bool",
          "name": "active",
          "type": "bool"
        }
      ],
      "stateMutability": "view",
      "type": "function"
    },
    {
      "inputs": [],
      "name": "owner",
      "outputs": [
        {
          "internalType": "address",
          "name": "",
          "type": "address"
        }
      ],
      "stateMutability": "view",
      "type": "function"
    },
    {
      "inputs": [
        {
          "internalType": "address",
          "name": "",
          "type": "address"
        },
        {
          "internalType": "uint256",
          "name": "",
          "type": "uint256"
        }
      ],
      "name": "ownerAgents",
      "outputs": [
        {
          "internalType": "uint256",
          "name": "",
          "type": "uint256"
        }
      ],
      "stateMutability": "view",
      "type": "function"
    },
    {
      "inputs": [
        {
          "internalType": "string",
          "name": "metadataURI",
          "type": "string"
        }
      ],
      "name": "registerAgent",
      "outputs": [
        {
          "internalType": "uint256",
          "name": "agentId",
          "type": "uint256"
        }
      ],
      "stateMutability": "nonpayable",
      "type": "function"
    },
    {
      "inputs": [],
      "name": "renounceOwnership",
      "outputs": [],
      "stateMutability": "nonpayable",
      "type": "function"
    },
    {
      "inputs": [
        {
          "internalType": "address",
          "name": "newOwner",
          "type": "address"
        }
      ],
      "name": "transferOwnership",
      "outputs": [],
      "stateMutability": "nonpayable",
      "type": "function"
    },
    {
      "inputs": [
        {
          "internalType": "uint256",
          "name": "agentId",
          "type": "uint256"
        },
        {
          "internalType": "string",
          "name": "newMetadataURI",
          "type": "string"
        }
      ],
      "name": "updateAgentMetadata",
      "outputs": [],
      "stateMutability": "nonpayable",
      "type": "function"
    }
  ],
  "transactionHash": "0xa184c3deb3734ae1f766e67817f65b56214b8d1ee8176d733c4afe67365cd122",
  "args": [],
  "numDeployments": 2,
  "solcInputHash": "1a6a9ab9f253dba114579a627a9a11ef",
  "bytecode": "0x6080604052600160045534801561001557600080fd5b50338061003c57604051631e4fbdf760e01b81526000600482015260240160405180910390fd5b6100458161004f565b506001805561009f565b600080546001600160a01b038381166001600160a01b0319831681178455604051919092169283917f8be0079c531659141344cd1fd0a4f28419497f9722a3daafe3b4186f6b6457e09190a35050565b610d80806100ae6000396000f3fe608060405234801561001057600080fd5b50600436106100a95760003560e01c80637585840a116100715780637585840a146101285780638da5cb5b14610148578063de99f15714610163578063eaaf77e614610186578063ed72e999146101a9578063f2fde38b146101bc57600080fd5b806311ba6b4a146100ae57806312f3a11d146100c35780632d2a9585146100ec57806362febe4f1461010d578063715018a614610120575b600080fd5b6100c16100bc3660046108ec565b6101cf565b005b6100d66100d13660046108ec565b6102fd565b6040516100e3919061094b565b60405180910390f35b6100ff6100fa366004610a3e565b610411565b6040519081526020016100e3565b6100ff61011b366004610a92565b610523565b6100c1610554565b61013b610136366004610abc565b610568565b6040516100e39190610ade565b6000546040516001600160a01b0390911681526020016100e3565b6101766101713660046108ec565b6105d4565b60405190151581526020016100e3565b6101996101943660046108ec565b610611565b6040516100e39493929190610b22565b6100c16101b7366004610b5e565b6106d0565b6100c16101ca366004610abc565b61080a565b6101d7610845565b6000818152600260205260409020546001600160a01b031633146102425760405162461bcd60e51b815260206004820152601b60248201527f4964656e7469747952656769737472793a204e6f74206f776e6572000000000060448201526064015b60405180910390fd5b60008181526002602052604090206003015460ff166102ae5760405162461bcd60e51b815260206004820152602260248201527f4964656e7469747952656769737472793a20416c726561647920696e61637469604482015261766560f01b6064820152608401610239565b600081815260026020526040808220600301805460ff1916905551339183917f8648ea00a281362b7d17874fe879e4cf49d332d95bd73b71a649f9da06db1d4c9190a36102fa60018055565b50565b610333604051806080016040528060006001600160a01b0316815260200160608152602001600081526020016000151581525090565b60008281526002602090815260409182902082516080810190935280546001600160a01b03168352600181018054919284019161036f90610ba5565b80601f016020809104026020016040519081016040528092919081815260200182805461039b90610ba5565b80156103e85780601f106103bd576101008083540402835291602001916103e8565b820191906000526020600020905b8154815290600101906020018083116103cb57829003601f168201915b50505091835250506002820154602082015260039091015460ff16151560409091015292915050565b600061041b610845565b6004805490600061042b83610bdf565b9091555060408051608081018252338152602080820186815242838501526001606084018190526000868152600290935293909120825181546001600160a01b0319166001600160a01b039091161781559051939450909290918201906104929082610c55565b5060408281015160028301556060909201516003918201805460ff191691151591909117905533600081815260209283528381208054600181018255908252929020909101839055905182907fc29f819ac362ff9c94de06666235808451aafd8894a2dffb86a080a965efeae39061050d9086904290610d15565b60405180910390a361051e60018055565b919050565b6003602052816000526040600020818154811061053f57600080fd5b90600052602060002001600091509150505481565b61055c61086f565b610566600061089c565b565b6001600160a01b0381166000908152600360209081526040918290208054835181840281018401909452808452606093928301828280156105c857602002820191906000526020600020905b8154815260200190600101908083116105b4575b50505050509050919050565b6000818152600260205260408120546001600160a01b03161580159061060b575060008281526002602052604090206003015460ff165b92915050565b600260205260009081526040902080546001820180546001600160a01b03909216929161063d90610ba5565b80601f016020809104026020016040519081016040528092919081815260200182805461066990610ba5565b80156106b65780601f1061068b576101008083540402835291602001916106b6565b820191906000526020600020905b81548152906001019060200180831161069957829003601f168201915b50505050600283015460039093015491929160ff16905084565b6106d8610845565b6000828152600260205260409020546001600160a01b0316331461073e5760405162461bcd60e51b815260206004820152601b60248201527f4964656e7469747952656769737472793a204e6f74206f776e657200000000006044820152606401610239565b60008281526002602052604090206003015460ff1661079f5760405162461bcd60e51b815260206004820181905260248201527f4964656e7469747952656769737472793a204167656e7420696e6163746976656044820152606401610239565b60008281526002602052604090206001016107ba8282610c55565b50336001600160a01b0316827fe86bf315326aaf0aad5c142e1969e8eecc4d7d98378f2f03a2d48a4b8b2b97fb836040516107f59190610d37565b60405180910390a361080660018055565b5050565b61081261086f565b6001600160a01b03811661083c57604051631e4fbdf760e01b815260006004820152602401610239565b6102fa8161089c565b60026001540361086857604051633ee5aeb560e01b815260040160405180910390fd5b6002600155565b6000546001600160a01b031633146105665760405163118cdaa760e01b8152336004820152602401610239565b600080546001600160a01b038381166001600160a01b0319831681178455604051919092169283917f8be0079c531659141344cd1fd0a4f28419497f9722a3daafe3b4186f6b6457e09190a35050565b6000602082840312156108fe57600080fd5b5035919050565b6000815180845260005b8181101561092b5760208185018101518683018201520161090f565b506000602082860101526020601f19601f83011685010191505092915050565b602080825282516001600160a01b0316828201528201516080604083015260009061097960a0840182610905565b9050604084015160608401526060840151151560808401528091505092915050565b634e487b7160e01b600052604160045260246000fd5b600082601f8301126109c257600080fd5b813567ffffffffffffffff808211156109dd576109dd61099b565b604051601f8301601f19908116603f01168101908282118183101715610a0557610a0561099b565b81604052838152866020858801011115610a1e57600080fd5b836020870160208301376000602085830101528094505050505092915050565b600060208284031215610a5057600080fd5b813567ffffffffffffffff811115610a6757600080fd5b610a73848285016109b1565b949350505050565b80356001600160a01b038116811461051e57600080fd5b60008060408385031215610aa557600080fd5b610aae83610a7b565b946020939093013593505050565b600060208284031215610ace57600080fd5b610ad782610a7b565b9392505050565b6020808252825182820181905260009190848201906040850190845b81811015610b1657835183529284019291840191600101610afa565b50909695505050505050565b6001600160a01b0385168152608060208201819052600090610b4690830186610905565b60408301949094525090151560609091015292915050565b60008060408385031215610b7157600080fd5b82359150602083013567ffffffffffffffff811115610b8f57600080fd5b610b9b858286016109b1565b9150509250929050565b600181811c90821680610bb957607f821691505b602082108103610bd957634e487b7160e01b600052602260045260246000fd5b50919050565b600060018201610bff57634e487b7160e01b600052601160045260246000fd5b5060010190565b601f821115610c5057600081815260208120601f850160051c81016020861015610c2d5750805b601f850160051c820191505b81811015610c4c57828155600101610c39565b5050505b505050565b815167ffffffffffffffff811115610c6f57610c6f61099b565b610c8381610c7d8454610ba5565b84610c06565b602080601f831160018114610cb85760008415610ca05750858301515b600019600386901b1c1916600185901b178555610c4c565b600085815260208120601f198616915b82811015610ce757888601518255948401946001909101908401610cc8565b5085821015610d055787850151600019600388901b60f8161c191681555b5050505050600190811b01905550565b604081526000610d286040830185610905565b90508260208301529392505050565b602081526000610ad7602083018461090556fea26469706673582212203012e4329f3eb7d3b0b81b3e0373d25c45e81bdc5b82b9e303861db9a75f0f7564736f6c63430008140033",
  "devdoc": {
    "details": "为每个 Agent 提供唯一的链上身份标识使用 OpenZeppelin Ownable 和 ReentrancyGuard 保证安全性",
    "errors": {
      "OwnableInvalidOwner(address)": [
        {
          "details": "The owner is not a valid owner account. (eg. `address(0)`)"
        }
      ],
      "OwnableUnauthorizedAccount(address)": [
        {
          "details": "The caller account is not authorized to perform an operation."
        }
      ],
      "ReentrancyGuardReentrantCall()": [
        {
          "details": "Unauthorized reentrant call."
        }
      ]
    },
    "kind": "dev",
    "methods": {
      "agentExists(uint256)": {
        "params": {
          "agentId": "Agent ID"
        },
        "returns": {
          "exists": "是否存在"
        }
      },
      "deactivateAgent(uint256)": {
        "details": "使用 nonReentrant 防止重入攻击",
        "params": {
          "agentId": "Agent ID"
        }
      },
      "getAgentIdentity(uint256)": {
        "params": {
          "agentId": "Agent ID"
        },
        "returns": {
          "identity": "Agent 身份结构"
        }
      },
      "getOwnerAgents(address)": {
        "params": {
          "owner": "所有者地址"
        },
        "returns": {
          "agentIds": "Agent ID 数组"
        }
      },
      "owner()": {
        "details": "Returns the address of the current owner."
      },
      "registerAgent(string)": {
        "details": "使用 nonReentrant 防止重入攻击",
        "params": {
          "metadataURI": "IPFS 元数据 URI"
        },
        "returns": {
          "agentId": "新创建的 Agent ID"
        }
      },
      "renounceOwnership()": {
        "details": "Leaves the contract without owner. It will not be possible to call `onlyOwner` functions. Can only be called by the current owner. NOTE: Renouncing ownership will leave the contract without an owner, thereby disabling any functionality that is only available to the owner."
      },
      "transferOwnership(address)": {
        "details": "Transfers ownership of the contract to a new account (`newOwner`). Can only be called by the current owner."
      },
      "updateAgentMetadata(uint256,string)": {
        "details": "使用 nonReentrant 防止重入攻击",
        "params": {
          "agentId": "Agent ID",
          "newMetadataURI": "新的元数据 URI"
        }
      }
    },
    "title": "IdentityRegistry",
    "version": 1
  },
  "userdoc": {
    "kind": "user",
    "methods": {
      "agentExists(uint256)": {
        "notice": "检查 Agent 是否存在且激活"
      },
      "deactivateAgent(uint256)": {
        "notice": "停用 Agent"
      },
      "getAgentIdentity(uint256)": {
        "notice": "获取 Agent 身份信息"
      },
      "getOwnerAgents(address)": {
        "notice": "获取所有者拥有的所有 Agent IDs"
      },
      "registerAgent(string)": {
        "notice": "注册新的 Agent 身份"
      },
      "updateAgentMetadata(uint256,string)": {
        "notice": "更新 Agent 元数据"
      }
    },
    "notice": "EIP-8004 身份注册表",
    "version": 1
  },
  "storageLayout": {
    "storage": [
      {
        "astId": 8,
        "contract": "contracts/EIP8004/IdentityRegistry.sol:IdentityRegistry",
        "label": "_owner",
        "offset": 0,
        "slot": "0",
        "type": "t_address"
      },
      {
        "astId": 441,
        "contract": "contracts/EIP8004/IdentityRegistry.sol:IdentityRegistry",
        "label": "_status",
        "offset": 0,
        "slot": "1",
        "type": "t_uint256"
      },
      {
        "astId": 1070,
        "contract": "contracts/EIP8004/IdentityRegistry.sol:IdentityRegistry",
        "label": "identities",
        "offset": 0,
        "slot": "2",
        "type": "t_mapping(t_uint256,t_struct(AgentIdentity)1065_storage)"
      },
      {
        "astId": 1075,
        "contract": "contracts/EIP8004/IdentityRegistry.sol:IdentityRegistry",
        "label": "ownerAgents",
        "offset": 0,
        "slot": "3",
        "type": "t_mapping(t_address,t_array(t_uint256)dyn_storage)"
      },
      {
        "astId": 1078,
        "contract": "contracts/EIP8004/IdentityRegistry.sol:IdentityRegistry",
        "label": "nextAgentId",
        "offset": 0,
        "slot": "4",
        "type": "t_uint256"
      }
    ],
    "types": {
      "t_address": {
        "encoding": "inplace",
        "label": "address",
        "numberOfBytes": "20"
      },
      "t_array(t_uint256)dyn_storage": {
        "base": "t_uint256",
        "encoding": "dynamic_array",
        "label": "uint256[]",
        "numberOfBytes": "32"
      },
      "t_bool": {
        "encoding": "inplace",
        "label": "bool",
        "numberOfBytes": "1"
      },
      "t_mapping(t_address,t_array(t_uint256)dyn_storage)": {
        "encoding": "mapping",
        "key": "t_address",
        "label": "mapping(address => uint256[])",
        "numberOfBytes": "32",
        "value": "t_array(t_uint256)dyn_storage"
      },
      "t_mapping(t_uint256,t_struct(AgentIdentity)1065_storage)": {
        "encoding": "mapping",
        "key": "t_uint256",
        "label": "mapping(uint256 => struct IdentityRegistry.AgentIdentity)",
        "numberOfBytes": "32",
        "value": "t_struct(AgentIdentity)1065_storage"
      },
      "t_string_storage": {
        "encoding": "bytes",
        "label": "string",
        "numberOfBytes": "32"
      },
      "t_struct(AgentIdentity)1065_storage": {
        "encoding": "inplace",
        "label": "struct IdentityRegistry.AgentIdentity",
        "members": [
          {
            "astId": 1058,
            "contract": "contracts/EIP8004/IdentityRegistry.sol:IdentityRegistry",
            "label": "owner",
            "offset": 0,
            "slot": "0",
            "type": "t_address"
          },
          {
            "astId": 1060,
            "contract": "contracts/EIP8004/IdentityRegistry.sol:IdentityRegistry",
            "label": "metadataURI",
            "offset": 0,
            "slot": "1",
            "type": "t_string_storage"
          },
          {
            "astId": 1062,
            "contract": "contracts/EIP8004/IdentityRegistry.sol:IdentityRegistry",
            "label": "createdAt",
            "offset": 0,
            "slot": "2",
            "type": "t_uint256"
          },
          {
            "astId": 1064,
            "contract": "contracts/EIP8004/IdentityRegistry.sol:IdentityRegistry",
            "label": "active",
            "offset": 0,
            "slot": "3",
            "type": "t_bool"
          }
        ],
        "numberOfBytes": "128"
      },
      "t_uint256": {
        "encoding": "inplace",
        "label": "uint256",
        "numberOfBytes": "32"
      }
    }
  }
}