{
  "address": "0xB05955b5D34171bd9675B9D0BFfe1c73818E671e",
  "abi": [
    {
      "inputs": [],
      "stateMutability": "nonpayable",
      "type": "constructor"
    },
    {
      "inputs": [
        {
          "internalType": "address",
          "name": "account",
          "type": "address"
        }
      ],
      "name": "AddressInsufficientBalance",
      "type": "error"
    },
    {
      "inputs": [],
      "name": "FailedInnerCall",
      "type": "error"
    },
    {
      "inputs": [
        {
          "internalType": "address",
          "name": "owner",
          "type": "address"
        }
      ],
      "name": "OwnableInvalidOwner",
      "type": "error"
    },
    {
      "inputs": [
        {
          "internalType": "address",
          "name": "account",
          "type": "address"
        }
      ],
      "name": "OwnableUnauthorizedAccount",
      "type": "error"
    },
    {
      "inputs": [],
      "name": "ReentrancyGuardReentrantCall",
      "type": "error"
    },
    {
      "anonymous": false,
      "inputs": [
        {
          "indexed": true,
          "internalType": "address",
          "name": "previousOwner",
          "type": "address"
        },
        {
          "indexed": true,
          "internalType": "address",
          "name": "newOwner",
          "type": "address"
        }
      ],
      "name": "OwnershipTransferred",
      "type": "event"
    },
    {
      "anonymous": false,
      "inputs": [
        {
          "indexed": true,
          "internalType": "uint256",
          "name": "tokenId",
          "type": "uint256"
        },
        {
          "indexed": true,
          "internalType": "address",
          "name": "payer",
          "type": "address"
        },
        {
          "indexed": true,
          "internalType": "address",
          "name": "recipient",
          "type": "address"
        },
        {
          "indexed": false,
          "internalType": "uint256",
          "name": "amount",
          "type": "uint256"
        },
        {
          "indexed": false,
          "internalType": "uint256",
          "name": "timestamp",
          "type": "uint256"
        }
      ],
      "name": "PaymentReceived",
      "type": "event"
    },
    {
      "anonymous": false,
      "inputs": [
        {
          "indexed": true,
          "internalType": "uint256",
          "name": "tokenId",
          "type": "uint256"
        },
        {
          "indexed": true,
          "internalType": "address",
          "name": "owner",
          "type": "address"
        },
        {
          "indexed": true,
          "internalType": "address",
          "name": "recipient",
          "type": "address"
        },
        {
          "indexed": false,
          "internalType": "uint256",
          "name": "amount",
          "type": "uint256"
        },
        {
          "indexed": false,
          "internalType": "enum PaymentSBT.Rarity",
          "name": "rarity",
          "type": "uint8"
        }
      ],
      "name": "SBTMinted",
      "type": "event"
    },
    {
      "anonymous": false,
      "inputs": [
        {
          "indexed": true,
          "internalType": "address",
          "name": "to",
          "type": "address"
        },
        {
          "indexed": false,
          "internalType": "uint256",
          "name": "amount",
          "type": "uint256"
        },
        {
          "indexed": false,
          "internalType": "uint256",
          "name": "timestamp",
          "type": "uint256"
        }
      ],
      "name": "Withdrawal",
      "type": "event"
    },
    {
      "inputs": [],
      "name": "COMMON_PROBABILITY",
      "outputs": [
        {
          "internalType": "uint256",
          "name": "",
          "type": "uint256"
        }
      ],
      "stateMutability": "view",
      "type": "function"
    },
    {
      "inputs": [],
      "name": "MAX_BATCH_SIZE",
      "outputs": [
        {
          "internalType": "uint256",
          "name": "",
          "type": "uint256"
        }
      ],
      "stateMutability": "view",
      "type": "function"
    },
    {
      "inputs": [],
      "name": "RARE_PROBABILITY",
      "outputs": [
        {
          "internalType": "uint256",
          "name": "",
          "type": "uint256"
        }
      ],
      "stateMutability": "view",
      "type": "function"
    },
    {
      "inputs": [
        {
          "internalType": "address",
          "name": "user",
          "type": "address"
        }
      ],
      "name": "balanceOf",
      "outputs": [
        {
          "internalType": "uint256",
          "name": "",
          "type": "uint256"
        }
      ],
      "stateMutability": "view",
      "type": "function"
    },
    {
      "inputs": [
        {
          "internalType": "uint256",
          "name": "tokenId",
          "type": "uint256"
        }
      ],
      "name": "exists",
      "outputs": [
        {
          "internalType": "bool",
          "name": "",
          "type": "bool"
        }
      ],
      "stateMutability": "view",
      "type": "function"
    },
    {
      "inputs": [],
      "name": "getAllReferrers",
      "outputs": [
        {
          "internalType": "string[]",
          "name": "",
          "type": "string[]"
        }
      ],
      "stateMutability": "view",
      "type": "function"
    },
    {
      "inputs": [],
      "name": "getContractBalance",
      "outputs": [
        {
          "internalType": "uint256",
          "name": "",
          "type": "uint256"
        }
      ],
      "stateMutability": "view",
      "type": "function"
    },
    {
      "inputs": [
        {
          "internalType": "uint256",
          "name": "tokenId",
          "type": "uint256"
        }
      ],
      "name": "getPaymentInfo",
      "outputs": [
        {
          "components": [
            {
              "internalType": "uint256",
              "name": "amount",
              "type": "uint256"
            },
            {
              "internalType": "address",
              "name": "payer",
              "type": "address"
            },
            {
              "internalType": "address",
              "name": "recipient",
              "type": "address"
            },
            {
              "internalType": "uint256",
              "name": "timestamp",
              "type": "uint256"
            },
            {
              "internalType": "string",
              "name": "description",
              "type": "string"
            },
            {
              "internalType": "enum PaymentSBT.Rarity",
              "name": "rarity",
              "type": "uint8"
            },
            {
              "internalType": "string",
              "name": "referrer",
              "type": "string"
            }
          ],
          "internalType": "struct PaymentSBT.PaymentInfo",
          "name": "",
          "type": "tuple"
        }
      ],
      "stateMutability": "view",
      "type": "function"
    },
    {
      "inputs": [
        {
          "internalType": "address",
          "name": "recipient",
          "type": "address"
        }
      ],
      "name": "getPaymentsByRecipient",
      "outputs": [
        {
          "internalType": "uint256[]",
          "name": "",
          "type": "uint256[]"
        }
      ],
      "stateMutability": "view",
      "type": "function"
    },
    {
      "inputs": [
        {
          "internalType": "uint256",
          "name": "tokenId",
          "type": "uint256"
        }
      ],
      "name": "getRarity",
      "outputs": [
        {
          "internalType": "enum PaymentSBT.Rarity",
          "name": "",
          "type": "uint8"
        }
      ],
      "stateMutability": "view",
      "type": "function"
    },
    {
      "inputs": [
        {
          "internalType": "enum PaymentSBT.Rarity",
          "name": "rarity",
          "type": "uint8"
        }
      ],
      "name": "getRarityCount",
      "outputs": [
        {
          "internalType": "uint256",
          "name": "",
          "type": "uint256"
        }
      ],
      "stateMutability": "view",
      "type": "function"
    },
    {
      "inputs": [
        {
          "internalType": "address",
          "name": "user",
          "type": "address"
        },
        {
          "internalType": "enum PaymentSBT.Rarity",
          "name": "rarity",
          "type": "uint8"
        }
      ],
      "name": "getRarityCountByOwner",
      "outputs": [
        {
          "internalType": "uint256",
          "name": "",
          "type": "uint256"
        }
      ],
      "stateMutability": "view",
      "type": "function"
    },
    {
      "inputs": [
        {
          "internalType": "address",
          "name": "user",
          "type": "address"
        }
      ],
      "name": "getRarityStatsByOwner",
      "outputs": [
        {
          "internalType": "uint256",
          "name": "commonCount",
          "type": "uint256"
        },
        {
          "internalType": "uint256",
          "name": "rareCount",
          "type": "uint256"
        },
        {
          "internalType": "uint256",
          "name": "totalCount",
          "type": "uint256"
        }
      ],
      "stateMutability": "view",
      "type": "function"
    },
    {
      "inputs": [
        {
          "internalType": "string",
          "name": "referrer",
          "type": "string"
        }
      ],
      "name": "getReferrerCount",
      "outputs": [
        {
          "internalType": "uint256",
          "name": "",
          "type": "uint256"
        }
      ],
      "stateMutability": "view",
      "type": "function"
    },
    {
      "inputs": [],
      "name": "getReferrerListLength",
      "outputs": [
        {
          "internalType": "uint256",
          "name": "",
          "type": "uint256"
        }
      ],
      "stateMutability": "view",
      "type": "function"
    },
    {
      "inputs": [],
      "name": "getReferrerStats",
      "outputs": [
        {
          "internalType": "string[]",
          "name": "referrers",
          "type": "string[]"
        },
        {
          "internalType": "uint256[]",
          "name": "counts",
          "type": "uint256[]"
        }
      ],
      "stateMutability": "view",
      "type": "function"
    },
    {
      "inputs": [
        {
          "internalType": "address",
          "name": "user",
          "type": "address"
        }
      ],
      "name": "getSBTsByAddress",
      "outputs": [
        {
          "internalType": "uint256[]",
          "name": "tokenIds",
          "type": "uint256[]"
        },
        {
          "components": [
            {
              "internalType": "uint256",
              "name": "amount",
              "type": "uint256"
            },
            {
              "internalType": "address",
              "name": "payer",
              "type": "address"
            },
            {
              "internalType": "address",
              "name": "recipient",
              "type": "address"
            },
            {
              "internalType": "uint256",
              "name": "timestamp",
              "type": "uint256"
            },
            {
              "internalType": "string",
              "name": "description",
              "type": "string"
            },
            {
              "internalType": "enum PaymentSBT.Rarity",
              "name": "rarity",
              "type": "uint8"
            },
            {
              "internalType": "string",
              "name": "referrer",
              "type": "string"
            }
          ],
          "internalType": "struct PaymentSBT.PaymentInfo[]",
          "name": "paymentInfos",
          "type": "tuple[]"
        }
      ],
      "stateMutability": "view",
      "type": "function"
    },
    {
      "inputs": [
        {
          "internalType": "address",
          "name": "user",
          "type": "address"
        }
      ],
      "name": "getTokensByOwner",
      "outputs": [
        {
          "internalType": "uint256[]",
          "name": "",
          "type": "uint256[]"
        }
      ],
      "stateMutability": "view",
      "type": "function"
    },
    {
      "inputs": [
        {
          "internalType": "address",
          "name": "user",
          "type": "address"
        },
        {
          "internalType": "enum PaymentSBT.Rarity",
          "name": "rarity",
          "type": "uint8"
        }
      ],
      "name": "getTokensByOwnerAndRarity",
      "outputs": [
        {
          "internalType": "uint256[]",
          "name": "",
          "type": "uint256[]"
        }
      ],
      "stateMutability": "view",
      "type": "function"
    },
    {
      "inputs": [
        {
          "internalType": "enum PaymentSBT.Rarity",
          "name": "rarity",
          "type": "uint8"
        }
      ],
      "name": "getTokensByRarity",
      "outputs": [
        {
          "internalType": "uint256[]",
          "name": "",
          "type": "uint256[]"
        }
      ],
      "stateMutability": "view",
      "type": "function"
    },
    {
      "inputs": [
        {
          "internalType": "string",
          "name": "referrer",
          "type": "string"
        }
      ],
      "name": "getTokensByReferrer",
      "outputs": [
        {
          "internalType": "uint256[]",
          "name": "",
          "type": "uint256[]"
        }
      ],
      "stateMutability": "view",
      "type": "function"
    },
    {
      "inputs": [
        {
          "internalType": "address[]",
          "name": "recipients",
          "type": "address[]"
        },
        {
          "internalType": "uint256[]",
          "name": "amounts",
          "type": "uint256[]"
        },
        {
          "internalType": "string[]",
          "name": "descriptions",
          "type": "string[]"
        },
        {
          "internalType": "string[]",
          "name": "referrers",
          "type": "string[]"
        }
      ],
      "name": "makeBatchPayment",
      "outputs": [
        {
          "internalType": "uint256[]",
          "name": "tokenIds",
          "type": "uint256[]"
        }
      ],
      "stateMutability": "payable",
      "type": "function"
    },
    {
      "inputs": [
        {
          "internalType": "address",
          "name": "recipient",
          "type": "address"
        },
        {
          "internalType": "string",
          "name": "description",
          "type": "string"
        },
        {
          "internalType": "string",
          "name": "referrer",
          "type": "string"
        }
      ],
      "name": "makePayment",
      "outputs": [
        {
          "internalType": "uint256",
          "name": "tokenId",
          "type": "uint256"
        }
      ],
      "stateMutability": "payable",
      "type": "function"
    },
    {
      "inputs": [],
      "name": "owner",
      "outputs": [
        {
          "internalType": "address",
          "name": "",
          "type": "address"
        }
      ],
      "stateMutability": "view",
      "type": "function"
    },
    {
      "inputs": [
        {
          "internalType": "uint256",
          "name": "tokenId",
          "type": "uint256"
        }
      ],
      "name": "ownerOf",
      "outputs": [
        {
          "internalType": "address",
          "name": "",
          "type": "address"
        }
      ],
      "stateMutability": "view",
      "type": "function"
    },
    {
      "inputs": [
        {
          "internalType": "uint256",
          "name": "",
          "type": "uint256"
        }
      ],
      "name": "paymentInfo",
      "outputs": [
        {
          "internalType": "uint256",
          "name": "amount",
          "type": "uint256"
        },
        {
          "internalType": "address",
          "name": "payer",
          "type": "address"
        },
        {
          "internalType": "address",
          "name": "recipient",
          "type": "address"
        },
        {
          "internalType": "uint256",
          "name": "timestamp",
          "type": "uint256"
        },
        {
          "internalType": "string",
          "name": "description",
          "type": "string"
        },
        {
          "internalType": "enum PaymentSBT.Rarity",
          "name": "rarity",
          "type": "uint8"
        },
        {
          "internalType": "string",
          "name": "referrer",
          "type": "string"
        }
      ],
      "stateMutability": "view",
      "type": "function"
    },
    {
      "inputs": [
        {
          "internalType": "address",
          "name": "",
          "type": "address"
        },
        {
          "internalType": "uint256",
          "name": "",
          "type": "uint256"
        }
      ],
      "name": "recipientPayments",
      "outputs": [
        {
          "internalType": "uint256",
          "name": "",
          "type": "uint256"
        }
      ],
      "stateMutability": "view",
      "type": "function"
    },
    {
      "inputs": [
        {
          "internalType": "uint256",
          "name": "",
          "type": "uint256"
        }
      ],
      "name": "referrerList",
      "outputs": [
        {
          "internalType": "string",
          "name": "",
          "type": "string"
        }
      ],
      "stateMutability": "view",
      "type": "function"
    },
    {
      "inputs": [
        {
          "internalType": "string",
          "name": "",
          "type": "string"
        },
        {
          "internalType": "uint256",
          "name": "",
          "type": "uint256"
        }
      ],
      "name": "referrerTokens",
      "outputs": [
        {
          "internalType": "uint256",
          "name": "",
          "type": "uint256"
        }
      ],
      "stateMutability": "view",
      "type": "function"
    },
    {
      "inputs": [],
      "name": "renounceOwnership",
      "outputs": [],
      "stateMutability": "nonpayable",
      "type": "function"
    },
    {
      "inputs": [
        {
          "internalType": "uint256",
          "name": "",
          "type": "uint256"
        }
      ],
      "name": "tokenRarity",
      "outputs": [
        {
          "internalType": "enum PaymentSBT.Rarity",
          "name": "",
          "type": "uint8"
        }
      ],
      "stateMutability": "view",
      "type": "function"
    },
    {
      "inputs": [
        {
          "internalType": "enum PaymentSBT.Rarity",
          "name": "",
          "type": "uint8"
        },
        {
          "internalType": "uint256",
          "name": "",
          "type": "uint256"
        }
      ],
      "name": "tokensByRarity",
      "outputs": [
        {
          "internalType": "uint256",
          "name": "",
          "type": "uint256"
        }
      ],
      "stateMutability": "view",
      "type": "function"
    },
    {
      "inputs": [],
      "name": "totalSupply",
      "outputs": [
        {
          "internalType": "uint256",
          "name": "",
          "type": "uint256"
        }
      ],
      "stateMutability": "view",
      "type": "function"
    },
    {
      "inputs": [
        {
          "internalType": "address",
          "name": "newOwner",
          "type": "address"
        }
      ],
      "name": "transferOwnership",
      "outputs": [],
      "stateMutability": "nonpayable",
      "type": "function"
    },
    {
      "inputs": [
        {
          "internalType": "address",
          "name": "",
          "type": "address"
        },
        {
          "internalType": "uint256",
          "name": "",
          "type": "uint256"
        }
      ],
      "name": "userTokens",
      "outputs": [
        {
          "internalType": "uint256",
          "name": "",
          "type": "uint256"
        }
      ],
      "stateMutability": "view",
      "type": "function"
    },
    {
      "inputs": [
        {
          "internalType": "address",
          "name": "",
          "type": "address"
        },
        {
          "internalType": "enum PaymentSBT.Rarity",
          "name": "",
          "type": "uint8"
        },
        {
          "internalType": "uint256",
          "name": "",
          "type": "uint256"
        }
      ],
      "name": "userTokensByRarity",
      "outputs": [
        {
          "internalType": "uint256",
          "name": "",
          "type": "uint256"
        }
      ],
      "stateMutability": "view",
      "type": "function"
    },
    {
      "inputs": [
        {
          "internalType": "address payable",
          "name": "to",
          "type": "address"
        },
        {
          "internalType": "uint256",
          "name": "amount",
          "type": "uint256"
        }
      ],
      "name": "withdraw",
      "outputs": [],
      "stateMutability": "nonpayable",
      "type": "function"
    },
    {
      "stateMutability": "payable",
      "type": "receive"
    }
  ],
  "transactionHash": "0x8bf4cdae48b2b8d3cb1a8d5dd3a50e5918c3f8bd147784bb784a1c2c30d2fd51",
  "args": [],
  "numDeployments": 10,
  "solcInputHash": "1a6a9ab9f253dba114579a627a9a11ef",
  "bytecode": "0x60806040523480156200001157600080fd5b5033806200003957604051631e4fbdf760e01b81526000600482015260240160405180910390fd5b62000044816200004f565b50600180556200009f565b600080546001600160a01b038381166001600160a01b0319831681178455604051919092169283917f8be0079c531659141344cd1fd0a4f28419497f9722a3daafe3b4186f6b6457e09190a35050565b61345880620000af6000396000f3fe60806040526004361061021e5760003560e01c8063a936ed5e11610123578063cfdbf254116100ab578063e4e0339e1161006f578063e4e0339e14610694578063ed406919146106b4578063f2fde38b146106ef578063f3fef3a31461070f578063f9f411d81461072f57600080fd5b8063cfdbf254146105ef578063d75e138614610604578063d810ff0f14610624578063dbd4820314610651578063e2b2793f1461067157600080fd5b8063b9a9f739116100f2578063b9a9f7391461054b578063be15661c1461056d578063c1f00f6c1461058d578063c52c978f146105a2578063c7a4296a146105cf57600080fd5b8063a936ed5e146104c6578063aa86940e146104e6578063afb0a36914610506578063b51cff381461053657600080fd5b8063468603a5116101a65780636f9fb98a116101755780636f9fb98a1461042857806370a082311461043b578063715018a6146104715780637764be6a146104885780638da5cb5b146104a857600080fd5b8063468603a51461035b578063487586971461037b5780634f558e79146103a85780636352211e146103f057600080fd5b80633157f16d116101ed5780633157f16d146102b357806334284716146102e65780633cdba4b81461030657806340398d671461032657806343f0fae11461034657600080fd5b806317a0532d1461022a57806318160ddd1461026157806318e43345146102805780631e19fdab1461029357600080fd5b3661022557005b600080fd5b34801561023657600080fd5b5061024a610245366004612923565b61074f565b604051610258929190612a83565b60405180910390f35b34801561026d57600080fd5b506005545b604051908152602001610258565b61027261028e366004612baa565b610abc565b6102a66102a1366004612d2c565b610fe1565b6040516102589190612e36565b3480156102bf57600080fd5b506102d36102ce366004612e49565b611944565b6040516102589796959493929190612e62565b3480156102f257600080fd5b50610272610301366004612edc565b611aa8565b34801561031257600080fd5b50610272610321366004612ef7565b611ae8565b34801561033257600080fd5b506102a6610341366004612923565b611b10565b34801561035257600080fd5b50600c54610272565b34801561036757600080fd5b506102a6610376366004612f2b565b611b7c565b34801561038757600080fd5b5061039b610396366004612e49565b611c20565b6040516102589190612f60565b3480156103b457600080fd5b506103e06103c3366004612e49565b6000908152600660205260409020546001600160a01b0316151590565b6040519015158152602001610258565b3480156103fc57600080fd5b5061041061040b366004612e49565b611c6a565b6040516001600160a01b039091168152602001610258565b34801561043457600080fd5b5047610272565b34801561044757600080fd5b50610272610456366004612923565b6001600160a01b031660009081526007602052604090205490565b34801561047d57600080fd5b50610486611c9f565b005b34801561049457600080fd5b506102a66104a3366004612923565b611cb3565b3480156104b457600080fd5b506000546001600160a01b0316610410565b3480156104d257600080fd5b506102726104e1366004612f6e565b611d1d565b3480156104f257600080fd5b506102a6610501366004612edc565b611d4e565b34801561051257600080fd5b5061039b610521366004612e49565b60086020526000908152604090205460ff1681565b34801561054257600080fd5b50610272601e81565b34801561055757600080fd5b50610560611dd9565b6040516102589190612fef565b34801561057957600080fd5b50610272610588366004613002565b611eb2565b34801561059957600080fd5b50610272604681565b3480156105ae57600080fd5b506105c26105bd366004612e49565b611ef0565b6040516102589190613040565b3480156105db57600080fd5b506102726105ea366004612f2b565b611f9c565b3480156105fb57600080fd5b50610272603281565b34801561061057600080fd5b5061027261061f366004613053565b611ff0565b34801561063057600080fd5b5061064461063f366004612e49565b61200c565b604051610258919061306f565b34801561065d57600080fd5b506102a661066c366004612ef7565b612232565b34801561067d57600080fd5b506106866122a0565b604051610258929190613082565b3480156106a057600080fd5b506102726106af3660046130a7565b61247b565b3480156106c057600080fd5b506106d46106cf366004612923565b6124a6565b60408051938452602084019290925290820152606001610258565b3480156106fb57600080fd5b5061048661070a366004612923565b6124e7565b34801561071b57600080fd5b5061048661072a366004612f6e565b612525565b34801561073b57600080fd5b5061027261074a366004612f6e565b6126b7565b6001600160a01b03811660009081526003602090815260408083208054825181850281018501909352808352606094859490939291908301828280156107b457602002820191906000526020600020905b8154815260200190600101908083116107a0575b5050835193945083925050506001600160401b038111156107d7576107d7612af5565b604051908082528060200260200182016040528015610800578160200160208202803683370190505b509350806001600160401b0381111561081b5761081b612af5565b60405190808252806020026020018201604052801561088b57816020015b6108786040805160e081018252600080825260208201819052918101829052606080820183905260808201529060a08201908152602001606081525090565b8152602001906001900390816108395790505b50925060005b81811015610ab45760008382815181106108ad576108ad6130eb565b60200260200101519050808683815181106108ca576108ca6130eb565b60209081029190910181019190915260008281526002808352604091829020825160e0810184528154815260018201546001600160a01b039081169582019590955291810154909316918101919091526003820154606082015260048201805491929160808401919061093c90613101565b80601f016020809104026020016040519081016040528092919081815260200182805461096890613101565b80156109b55780601f1061098a576101008083540402835291602001916109b5565b820191906000526020600020905b81548152906001019060200180831161099857829003601f168201915b5050509183525050600582015460209091019060ff1660018111156109dc576109dc6129cb565b60018111156109ed576109ed6129cb565b8152602001600682018054610a0190613101565b80601f0160208091040260200160405190810160405280929190818152602001828054610a2d90613101565b8015610a7a5780601f10610a4f57610100808354040283529160200191610a7a565b820191906000526020600020905b815481529060010190602001808311610a5d57829003601f168201915b505050505081525050858381518110610a9557610a956130eb565b6020026020010181905250508080610aac9061314b565b915050610891565b505050915091565b6000610ac66126d3565b60003411610b355760405162461bcd60e51b815260206004820152603160248201527f5061796d656e745342543a205061796d656e7420616d6f756e74206d75737420604482015270062652067726561746572207468616e203607c1b60648201526084015b60405180910390fd5b6001600160a01b038416610b5b5760405162461bcd60e51b8152600401610b2c90613164565b6101f483511115610bae5760405162461bcd60e51b815260206004820181905260248201527f5061796d656e745342543a204465736372697074696f6e20746f6f206c6f6e676044820152606401610b2c565b606482511115610bd05760405162461bcd60e51b8152600401610b2c906131b0565b600560008154610bdf9061314b565b91829055509050306000610bf2836126fd565b90506000610bff826127c4565b90506040518060e00160405280348152602001336001600160a01b03168152602001846001600160a01b03168152602001428152602001878152602001826001811115610c4e57610c4e6129cb565b815260209081018790526000868152600280835260409182902084518155928401516001840180546001600160a01b03199081166001600160a01b039384161790915592850151918401805490931691161790556060820151600382015560808201516004820190610cc09082613240565b5060a082015160058201805460ff191660018381811115610ce357610ce36129cb565b021790555060c08201516006820190610cfc9082613240565b505050600084815260066020908152604080832080546001600160a01b0319166001600160a01b038c16908117909155835260079091528120805491610d418361314b565b90915550506001600160a01b038088166000908152600360209081526040808320805460018181018355918552838520018990559387168352600482528083208054808601825590845282842001889055878352600890915290208054839260ff19909116908381811115610db857610db86129cb565b021790555060096000826001811115610dd357610dd36129cb565b6001811115610de457610de46129cb565b815260208082019290925260409081016000908120805460018181018355918352848320018890556001600160a01b038b168252600a909352908120918390811115610e3257610e326129cb565b6001811115610e4357610e436129cb565b81526020808201929092526040016000908120805460018101825590825291902001849055845115610f3957600b85604051610e7f91906132ff565b90815260405190819003602090810182208054600181018255600091825291902001859055600d90610eb29087906132ff565b9081526040519081900360200190205460ff16610f3957600c80546001810182556000919091527fdf6966c971051c3d54ec59162606531493a51404a002842f56009d7e5cf4a8c701610f058682613240565b506001600d86604051610f1891906132ff565b908152604051908190036020019020805491151560ff199092169190911790555b604080513481524260208201526001600160a01b03851691339187917f97a560c1f75713f086cb846ee29d9284d3ce238c5913d3fb5d65dc4d16512283910160405180910390a4826001600160a01b0316876001600160a01b0316857f070412230afdf3cb124b289c43db961b2265d276f725e755cded40e3aa5bcb8e3485604051610fc692919061331b565b60405180910390a4505050610fda60018055565b9392505050565b6060610feb6126d3565b83518551148015610ffd575082518451145b801561100a575081518351145b6110615760405162461bcd60e51b815260206004820152602260248201527f5061796d656e745342543a20417272617973206c656e677468206d69736d61746044820152610c6d60f31b6064820152608401610b2c565b6000845111801561107457506032845111155b6110c05760405162461bcd60e51b815260206004820152601e60248201527f5061796d656e745342543a20496e76616c69642062617463682073697a6500006044820152606401610b2c565b6000805b85518110156112705760008682815181106110e1576110e16130eb565b6020026020010151116111485760405162461bcd60e51b815260206004820152602960248201527f5061796d656e745342543a20416d6f756e74206d75737420626520677265617460448201526806572207468616e20360bc1b6064820152608401610b2c565b60006001600160a01b0316878281518110611165576111656130eb565b60200260200101516001600160a01b0316036111935760405162461bcd60e51b8152600401610b2c90613164565b60648482815181106111a7576111a76130eb565b60200260200101515111156111ce5760405162461bcd60e51b8152600401610b2c906131b0565b8581815181106111e0576111e06130eb565b6020026020010151826111f3919061332f565b9150858181518110611207576112076130eb565b602002602001015182101561125e5760405162461bcd60e51b815260206004820152601d60248201527f5061796d656e745342543a204f766572666c6f772064657465637465640000006044820152606401610b2c565b806112688161314b565b9150506110c4565b50803410156112c15760405162461bcd60e51b815260206004820181905260248201527f5061796d656e745342543a20496e73756666696369656e74207061796d656e746044820152606401610b2c565b84516001600160401b038111156112da576112da612af5565b604051908082528060200260200182016040528015611303578160200160208202803683370190505b5091503060005b865181101561190e5760006005600081546113249061314b565b91905081905590508085838151811061133f5761133f6130eb565b6020026020010181815250506000611356826126fd565b90506000611363826127c4565b90506040518060e001604052808b8681518110611382576113826130eb565b60200260200101518152602001336001600160a01b03168152602001866001600160a01b031681526020014281526020018a86815181106113c5576113c56130eb565b602002602001015181526020018260018111156113e4576113e46129cb565b81526020018986815181106113fb576113fb6130eb565b6020908102919091018101519091526000858152600280835260409182902084518155928401516001840180546001600160a01b03199081166001600160a01b0393841617909155928501519184018054909316911617905560608201516003820155608082015160048201906114729082613240565b5060a082015160058201805460ff191660018381811115611495576114956129cb565b021790555060c082015160068201906114ae9082613240565b509050508a84815181106114c4576114c46130eb565b60200260200101516006600085815260200190815260200160002060006101000a8154816001600160a01b0302191690836001600160a01b03160217905550600760008c8681518110611519576115196130eb565b60200260200101516001600160a01b03166001600160a01b0316815260200190815260200160002060008154809291906115529061314b565b9190505550600360008c868151811061156d5761156d6130eb565b6020908102919091018101516001600160a01b03908116835282820193909352604091820160009081208054600181810183559183528383200188905593891681526004825282812080548086018255908252828220018790558681526008909152208054839260ff199091169083818111156115ec576115ec6129cb565b021790555060096000826001811115611607576116076129cb565b6001811115611618576116186129cb565b8152602080820192909252604001600090812080546001810182559082529181209091018490558b51600a91908d9087908110611657576116576130eb565b60200260200101516001600160a01b03166001600160a01b031681526020019081526020016000206000826001811115611693576116936129cb565b60018111156116a4576116a46129cb565b81526020808201929092526040016000908120805460018101825590825291812090910184905588518990869081106116df576116df6130eb565b602002602001015151111561180857600b888581518110611702576117026130eb565b602002602001015160405161171791906132ff565b9081526040516020918190038201902080546001810182556000918252919020018390558751600d90899086908110611752576117526130eb565b602002602001015160405161176791906132ff565b9081526040519081900360200190205460ff1661180857600c888581518110611792576117926130eb565b602090810291909101810151825460018101845560009384529190922001906117bb9082613240565b506001600d8986815181106117d2576117d26130eb565b60200260200101516040516117e791906132ff565b908152604051908190036020019020805491151560ff199092169190911790555b846001600160a01b0316336001600160a01b0316847f97a560c1f75713f086cb846ee29d9284d3ce238c5913d3fb5d65dc4d165122838d8881518110611850576118506130eb565b602002602001015142604051611870929190918252602082015260400190565b60405180910390a4846001600160a01b03168b8581518110611894576118946130eb565b60200260200101516001600160a01b0316847f070412230afdf3cb124b289c43db961b2265d276f725e755cded40e3aa5bcb8e8d88815181106118d9576118d96130eb565b6020026020010151856040516118f092919061331b565b60405180910390a450505080806119069061314b565b91505061130a565b50813411156119315760006119238334613342565b905061192f33826127f5565b505b505061193c60018055565b949350505050565b60026020819052600091825260409091208054600182015492820154600383015460048401805493956001600160a01b039081169593169391929161198890613101565b80601f01602080910402602001604051908101604052809291908181526020018280546119b490613101565b8015611a015780601f106119d657610100808354040283529160200191611a01565b820191906000526020600020905b8154815290600101906020018083116119e457829003601f168201915b5050506005840154600685018054949560ff909216949193509150611a2590613101565b80601f0160208091040260200160405190810160405280929190818152602001828054611a5190613101565b8015611a9e5780601f10611a7357610100808354040283529160200191611a9e565b820191906000526020600020905b815481529060010190602001808311611a8157829003601f168201915b5050505050905087565b600060096000836001811115611ac057611ac06129cb565b6001811115611ad157611ad16129cb565b815260208101919091526040016000205492915050565b6000600b82604051611afa91906132ff565b9081526040519081900360200190205492915050565b6001600160a01b038116600090815260036020908152604091829020805483518184028101840190945280845260609392830182828015611b7057602002820191906000526020600020905b815481526020019060010190808311611b5c575b50505050509050919050565b6001600160a01b0382166000908152600a60205260408120606091836001811115611ba957611ba96129cb565b6001811115611bba57611bba6129cb565b8152602001908152602001600020805480602002602001604051908101604052809291908181526020018280548015611c1257602002820191906000526020600020905b815481526020019060010190808311611bfe575b505050505090505b92915050565b6000818152600660205260408120546001600160a01b0316611c545760405162461bcd60e51b8152600401610b2c90613355565b5060009081526008602052604090205460ff1690565b6000818152600660205260408120546001600160a01b031680611c1a5760405162461bcd60e51b8152600401610b2c90613355565b611ca7612891565b611cb160006128be565b565b6001600160a01b038116600090815260046020908152604091829020805483518184028101840190945280845260609392830182828015611b705760200282019190600052602060002090815481526020019060010190808311611b5c5750505050509050919050565b60046020528160005260406000208181548110611d3957600080fd5b90600052602060002001600091509150505481565b606060096000836001811115611d6657611d666129cb565b6001811115611d7757611d776129cb565b8152602001908152602001600020805480602002602001604051908101604052809291908181526020018280548015611b705760200282019190600052602060002090815481526020019060010190808311611b5c5750505050509050919050565b6060600c805480602002602001604051908101604052809291908181526020016000905b82821015611ea9578382906000526020600020018054611e1c90613101565b80601f0160208091040260200160405190810160405280929190818152602001828054611e4890613101565b8015611e955780601f10611e6a57610100808354040283529160200191611e95565b820191906000526020600020905b815481529060010190602001808311611e7857829003601f168201915b505050505081526020019060010190611dfd565b50505050905090565b600a6020528260005260406000206020528160005260406000208181548110611eda57600080fd5b9060005260206000200160009250925050505481565b600c8181548110611f0057600080fd5b906000526020600020016000915090508054611f1b90613101565b80601f0160208091040260200160405190810160405280929190818152602001828054611f4790613101565b8015611f945780601f10611f6957610100808354040283529160200191611f94565b820191906000526020600020905b815481529060010190602001808311611f7757829003601f168201915b505050505081565b6001600160a01b0382166000908152600a6020526040812081836001811115611fc757611fc76129cb565b6001811115611fd857611fd86129cb565b81526020810191909152604001600020549392505050565b60096020528160005260406000208181548110611d3957600080fd5b61204b6040805160e081018252600080825260208201819052918101829052606080820183905260808201529060a08201908152602001606081525090565b6000828152600660205260409020546001600160a01b031661207f5760405162461bcd60e51b8152600401610b2c90613355565b600082815260026020818152604092839020835160e0810185528154815260018201546001600160a01b03908116938201939093529281015490911692820192909252600382015460608201526004820180549192916080840191906120e490613101565b80601f016020809104026020016040519081016040528092919081815260200182805461211090613101565b801561215d5780601f106121325761010080835404028352916020019161215d565b820191906000526020600020905b81548152906001019060200180831161214057829003601f168201915b5050509183525050600582015460209091019060ff166001811115612184576121846129cb565b6001811115612195576121956129cb565b81526020016006820180546121a990613101565b80601f01602080910402602001604051908101604052809291908181526020018280546121d590613101565b80156122225780601f106121f757610100808354040283529160200191612222565b820191906000526020600020905b81548152906001019060200180831161220557829003601f168201915b5050505050815250509050919050565b6060600b8260405161224491906132ff565b9081526040805191829003602090810183208054808302850183019093528284529190830182828015611b705760200282019190600052602060002090815481526020019060010190808311611b5c5750505050509050919050565b600c546060908190806001600160401b038111156122c0576122c0612af5565b6040519080825280602002602001820160405280156122f357816020015b60608152602001906001900390816122de5790505b509250806001600160401b0381111561230e5761230e612af5565b604051908082528060200260200182016040528015612337578160200160208202803683370190505b50915060005b8181101561247557600c8181548110612358576123586130eb565b90600052602060002001805461236d90613101565b80601f016020809104026020016040519081016040528092919081815260200182805461239990613101565b80156123e65780601f106123bb576101008083540402835291602001916123e6565b820191906000526020600020905b8154815290600101906020018083116123c957829003601f168201915b50505050508482815181106123fd576123fd6130eb565b6020026020010181905250600b600c828154811061241d5761241d6130eb565b90600052602060002001604051612434919061338a565b908152602001604051809103902080549050838281518110612458576124586130eb565b60209081029190910101528061246d8161314b565b91505061233d565b50509091565b8151602081840181018051600b825292820191850191909120919052805482908110611d3957600080fd5b6001600160a01b0381166000908152600a6020908152604080832083805290915280822054600183529082205490916124df828461332f565b929491935050565b6124ef612891565b6001600160a01b03811661251957604051631e4fbdf760e01b815260006004820152602401610b2c565b612522816128be565b50565b61252d612891565b6125356126d3565b6001600160a01b0382166125995760405162461bcd60e51b815260206004820152602560248201527f5061796d656e745342543a20496e76616c696420726563697069656e74206164604482015264647265737360d81b6064820152608401610b2c565b600047116125e95760405162461bcd60e51b815260206004820181905260248201527f5061796d656e745342543a204e6f2066756e647320746f2077697468647261776044820152606401610b2c565b8060008190036125fa57504761265c565b4782111561265c5760405162461bcd60e51b815260206004820152602960248201527f5061796d656e745342543a20496e73756666696369656e7420636f6e74726163604482015268742062616c616e636560b81b6064820152608401610b2c565b61266683826127f5565b604080518281524260208201526001600160a01b038516917fdf273cb619d95419a9cd0ec88123a0538c85064229baa6363788f743fff90deb910160405180910390a2506126b360018055565b5050565b60036020528160005260406000208181548110611d3957600080fd5b6002600154036126f657604051633ee5aeb560e01b815260040160405180910390fd5b6002600155565b60008061270b600143613342565b409050806127375760408051436020820152016040516020818303038152906040528051906020012090505b42444383333088600554325a60408051602081019b909b528a01989098526060808a019790975260808901959095526bffffffffffffffffffffffff1993861b841660a089015291851b831660b488015260c887015260e8860152911b1661010883015261011c82015261013c0160408051601f1981840301815291905280516020909101209392505050565b6000806127d2606484613400565b905060468110156127e65750600092915050565b50600192915050565b50919050565b804710156128185760405163cd78605960e01b8152306004820152602401610b2c565b6000826001600160a01b03168260405160006040518083038185875af1925050503d8060008114612865576040519150601f19603f3d011682016040523d82523d6000602084013e61286a565b606091505b505090508061288c57604051630a12f52160e11b815260040160405180910390fd5b505050565b6000546001600160a01b03163314611cb15760405163118cdaa760e01b8152336004820152602401610b2c565b600080546001600160a01b038381166001600160a01b0319831681178455604051919092169283917f8be0079c531659141344cd1fd0a4f28419497f9722a3daafe3b4186f6b6457e09190a35050565b6001600160a01b038116811461252257600080fd5b60006020828403121561293557600080fd5b8135610fda8161290e565b600081518084526020808501945080840160005b8381101561297057815187529582019590820190600101612954565b509495945050505050565b60005b8381101561299657818101518382015260200161297e565b50506000910152565b600081518084526129b781602086016020860161297b565b601f01601f19169290920160200192915050565b634e487b7160e01b600052602160045260246000fd5b600281106129ff57634e487b7160e01b600052602160045260246000fd5b9052565b805182526000602082015160018060a01b038082166020860152806040850151166040860152505060608201516060840152608082015160e06080850152612a4e60e085018261299f565b905060a0830151612a6260a08601826129e1565b5060c083015184820360c0860152612a7a828261299f565b95945050505050565b604081526000612a966040830185612940565b6020838203818501528185518084528284019150828160051b85010183880160005b83811015612ae657601f19878403018552612ad4838351612a03565b94860194925090850190600101612ab8565b50909998505050505050505050565b634e487b7160e01b600052604160045260246000fd5b604051601f8201601f191681016001600160401b0381118282101715612b3357612b33612af5565b604052919050565b600082601f830112612b4c57600080fd5b81356001600160401b03811115612b6557612b65612af5565b612b78601f8201601f1916602001612b0b565b818152846020838601011115612b8d57600080fd5b816020850160208301376000918101602001919091529392505050565b600080600060608486031215612bbf57600080fd5b8335612bca8161290e565b925060208401356001600160401b0380821115612be657600080fd5b612bf287838801612b3b565b93506040860135915080821115612c0857600080fd5b50612c1586828701612b3b565b9150509250925092565b60006001600160401b03821115612c3857612c38612af5565b5060051b60200190565b600082601f830112612c5357600080fd5b81356020612c68612c6383612c1f565b612b0b565b82815260059290921b84018101918181019086841115612c8757600080fd5b8286015b84811015612ca25780358352918301918301612c8b565b509695505050505050565b600082601f830112612cbe57600080fd5b81356020612cce612c6383612c1f565b82815260059290921b84018101918181019086841115612ced57600080fd5b8286015b84811015612ca25780356001600160401b03811115612d105760008081fd5b612d1e8986838b0101612b3b565b845250918301918301612cf1565b60008060008060808587031215612d4257600080fd5b84356001600160401b0380821115612d5957600080fd5b818701915087601f830112612d6d57600080fd5b81356020612d7d612c6383612c1f565b82815260059290921b8401810191818101908b841115612d9c57600080fd5b948201945b83861015612dc3578535612db48161290e565b82529482019490820190612da1565b98505088013592505080821115612dd957600080fd5b612de588838901612c42565b94506040870135915080821115612dfb57600080fd5b612e0788838901612cad565b93506060870135915080821115612e1d57600080fd5b50612e2a87828801612cad565b91505092959194509250565b602081526000610fda6020830184612940565b600060208284031215612e5b57600080fd5b5035919050565b8781526001600160a01b038781166020830152861660408201526060810185905260e060808201819052600090612e9b9083018661299f565b612ea860a08401866129e1565b82810360c0840152612eba818561299f565b9a9950505050505050505050565b803560028110612ed757600080fd5b919050565b600060208284031215612eee57600080fd5b610fda82612ec8565b600060208284031215612f0957600080fd5b81356001600160401b03811115612f1f57600080fd5b61193c84828501612b3b565b60008060408385031215612f3e57600080fd5b8235612f498161290e565b9150612f5760208401612ec8565b90509250929050565b60208101611c1a82846129e1565b60008060408385031215612f8157600080fd5b8235612f8c8161290e565b946020939093013593505050565b600081518084526020808501808196508360051b8101915082860160005b85811015612fe2578284038952612fd084835161299f565b98850198935090840190600101612fb8565b5091979650505050505050565b602081526000610fda6020830184612f9a565b60008060006060848603121561301757600080fd5b83356130228161290e565b925061303060208501612ec8565b9150604084013590509250925092565b602081526000610fda602083018461299f565b6000806040838503121561306657600080fd5b612f8c83612ec8565b602081526000610fda6020830184612a03565b6040815260006130956040830185612f9a565b8281036020840152612a7a8185612940565b600080604083850312156130ba57600080fd5b82356001600160401b038111156130d057600080fd5b6130dc85828601612b3b565b95602094909401359450505050565b634e487b7160e01b600052603260045260246000fd5b600181811c9082168061311557607f821691505b6020821081036127ef57634e487b7160e01b600052602260045260246000fd5b634e487b7160e01b600052601160045260246000fd5b60006001820161315d5761315d613135565b5060010190565b6020808252602c908201527f5061796d656e745342543a20526563697069656e742063616e6e6f742062652060408201526b7a65726f206164647265737360a01b606082015260800190565b60208082526022908201527f5061796d656e745342543a20526566657272657220636f646520746f6f206c6f6040820152616e6760f01b606082015260800190565b601f82111561288c57600081815260208120601f850160051c810160208610156132195750805b601f850160051c820191505b8181101561323857828155600101613225565b505050505050565b81516001600160401b0381111561325957613259612af5565b61326d816132678454613101565b846131f2565b602080601f8311600181146132a2576000841561328a5750858301515b600019600386901b1c1916600185901b178555613238565b600085815260208120601f198616915b828110156132d1578886015182559484019460019091019084016132b2565b50858210156132ef5787850151600019600388901b60f8161c191681555b5050505050600190811b01905550565b6000825161331181846020870161297b565b9190910192915050565b82815260408101610fda60208301846129e1565b80820180821115611c1a57611c1a613135565b81810381811115611c1a57611c1a613135565b6020808252818101527f5061796d656e745342543a20546f6b656e20646f6573206e6f74206578697374604082015260600190565b600080835461339881613101565b600182811680156133b057600181146133c5576133f4565b60ff19841687528215158302870194506133f4565b8760005260208060002060005b858110156133eb5781548a8201529084019082016133d2565b50505082870194505b50929695505050505050565b60008261341d57634e487b7160e01b600052601260045260246000fd5b50069056fea264697066735822122033c2ba4fe4d9fd7e03c2c0f6c88076d05fc902be1fa1520d0b4c41806c0520d864736f6c63430008140033",
  "devdoc": {
    "details": "SBTSBTwithdrawSBT2Common Rare OpenZeppelin Ownable, ReentrancyGuard  Address ",
    "errors": {
      "AddressInsufficientBalance(address)": [
        {
          "details": "The ETH balance of the account is not enough to perform the operation."
        }
      ],
      "FailedInnerCall()": [
        {
          "details": "A call to an address target failed. The target may have reverted."
        }
      ],
      "OwnableInvalidOwner(address)": [
        {
          "details": "The owner is not a valid owner account. (eg. `address(0)`)"
        }
      ],
      "OwnableUnauthorizedAccount(address)": [
        {
          "details": "The caller account is not authorized to perform an operation."
        }
      ],
      "ReentrancyGuardReentrantCall()": [
        {
          "details": "Unauthorized reentrant call."
        }
      ]
    },
    "kind": "dev",
    "methods": {
      "balanceOf(address)": {
        "params": {
          "user": ""
        },
        "returns": {
          "_0": "Token"
        }
      },
      "exists(uint256)": {
        "params": {
          "tokenId": "Token ID"
        },
        "returns": {
          "_0": ""
        }
      },
      "getAllReferrers()": {
        "details": "",
        "returns": {
          "_0": ""
        }
      },
      "getContractBalance()": {
        "returns": {
          "_0": "wei"
        }
      },
      "getPaymentInfo(uint256)": {
        "params": {
          "tokenId": "Token ID"
        },
        "returns": {
          "_0": ""
        }
      },
      "getPaymentsByRecipient(address)": {
        "params": {
          "recipient": ""
        },
        "returns": {
          "_0": "Token ID"
        }
      },
      "getRarity(uint256)": {
        "params": {
          "tokenId": "Token ID"
        },
        "returns": {
          "_0": ""
        }
      },
      "getRarityCount(uint8)": {
        "params": {
          "rarity": ""
        },
        "returns": {
          "_0": "Token"
        }
      },
      "getRarityCountByOwner(address,uint8)": {
        "params": {
          "rarity": "",
          "user": ""
        },
        "returns": {
          "_0": "Token"
        }
      },
      "getRarityStatsByOwner(address)": {
        "details": "",
        "params": {
          "user": ""
        },
        "returns": {
          "commonCount": "Common",
          "rareCount": "Rare",
          "totalCount": ""
        }
      },
      "getReferrerCount(string)": {
        "params": {
          "referrer": ""
        },
        "returns": {
          "_0": "Token"
        }
      },
      "getReferrerListLength()": {
        "returns": {
          "_0": ""
        }
      },
      "getReferrerStats()": {
        "details": "",
        "returns": {
          "counts": "Token",
          "referrers": ""
        }
      },
      "getSBTsByAddress(address)": {
        "params": {
          "user": ""
        },
        "returns": {
          "paymentInfos": "",
          "tokenIds": "Token ID"
        }
      },
      "getTokensByOwner(address)": {
        "params": {
          "user": ""
        },
        "returns": {
          "_0": "Token ID"
        }
      },
      "getTokensByOwnerAndRarity(address,uint8)": {
        "params": {
          "rarity": "",
          "user": ""
        },
        "returns": {
          "_0": "Token ID"
        }
      },
      "getTokensByRarity(uint8)": {
        "params": {
          "rarity": ""
        },
        "returns": {
          "_0": "Token ID"
        }
      },
      "getTokensByReferrer(string)": {
        "params": {
          "referrer": ""
        },
        "returns": {
          "_0": "Token ID"
        }
      },
      "makeBatchPayment(address[],uint256[],string[],string[])": {
        "details": "SBTrecipients nonReentrant ",
        "params": {
          "amounts": "wei",
          "descriptions": "",
          "recipients": "SBT",
          "referrers": ""
        },
        "returns": {
          "tokenIds": "SBT Token ID"
        }
      },
      "makePayment(address,string,string)": {
        "details": "withdrawSBTrecipient nonReentrant ",
        "params": {
          "description": "",
          "recipient": "SBT",
          "referrer": ""
        },
        "returns": {
          "tokenId": "SBT Token ID"
        }
      },
      "owner()": {
        "details": "Returns the address of the current owner."
      },
      "ownerOf(uint256)": {
        "params": {
          "tokenId": "Token ID"
        },
        "returns": {
          "_0": ""
        }
      },
      "renounceOwnership()": {
        "details": "Leaves the contract without owner. It will not be possible to call `onlyOwner` functions. Can only be called by the current owner. NOTE: Renouncing ownership will leave the contract without an owner, thereby disabling any functionality that is only available to the owner."
      },
      "totalSupply()": {
        "returns": {
          "_0": "Token"
        }
      },
      "transferOwnership(address)": {
        "details": "Transfers ownership of the contract to a new account (`newOwner`). Can only be called by the current owner."
      },
      "withdraw(address,uint256)": {
        "details": " onlyOwner  nonReentrant  Address.sendValue ",
        "params": {
          "amount": "wei0",
          "to": ""
        }
      }
    },
    "title": "PaymentSBT",
    "version": 1
  },
  "userdoc": {
    "kind": "user",
    "methods": {
      "balanceOf(address)": {
        "notice": "Token"
      },
      "exists(uint256)": {
        "notice": "Token"
      },
      "getAllReferrers()": {
        "notice": ""
      },
      "getContractBalance()": {
        "notice": ""
      },
      "getPaymentInfo(uint256)": {
        "notice": "Token"
      },
      "getPaymentsByRecipient(address)": {
        "notice": "Token IDs"
      },
      "getRarity(uint256)": {
        "notice": "Token"
      },
      "getRarityCount(uint8)": {
        "notice": "Token"
      },
      "getRarityCountByOwner(address,uint8)": {
        "notice": "Token"
      },
      "getRarityStatsByOwner(address)": {
        "notice": "SBT"
      },
      "getReferrerCount(string)": {
        "notice": "Token"
      },
      "getReferrerListLength()": {
        "notice": ""
      },
      "getReferrerStats()": {
        "notice": ""
      },
      "getSBTsByAddress(address)": {
        "notice": "SBT"
      },
      "getTokensByOwner(address)": {
        "notice": "Token IDs"
      },
      "getTokensByOwnerAndRarity(address,uint8)": {
        "notice": "Token IDs"
      },
      "getTokensByRarity(uint8)": {
        "notice": "Token IDs"
      },
      "getTokensByReferrer(string)": {
        "notice": "Token IDs"
      },
      "makeBatchPayment(address[],uint256[],string[],string[])": {
        "notice": "SBT"
      },
      "makePayment(address,string,string)": {
        "notice": "SBT"
      },
      "ownerOf(uint256)": {
        "notice": "Token"
      },
      "totalSupply()": {
        "notice": "Token"
      },
      "withdraw(address,uint256)": {
        "notice": ""
      }
    },
    "notice": "SBT",
    "version": 1
  },
  "storageLayout": {
    "storage": [
      {
        "astId": 8,
        "contract": "contracts/PaymentSBT.sol:PaymentSBT",
        "label": "_owner",
        "offset": 0,
        "slot": "0",
        "type": "t_address"
      },
      {
        "astId": 441,
        "contract": "contracts/PaymentSBT.sol:PaymentSBT",
        "label": "_status",
        "offset": 0,
        "slot": "1",
        "type": "t_uint256"
      },
      {
        "astId": 1887,
        "contract": "contracts/PaymentSBT.sol:PaymentSBT",
        "label": "paymentInfo",
        "offset": 0,
        "slot": "2",
        "type": "t_mapping(t_uint256,t_struct(PaymentInfo)1882_storage)"
      },
      {
        "astId": 1892,
        "contract": "contracts/PaymentSBT.sol:PaymentSBT",
        "label": "userTokens",
        "offset": 0,
        "slot": "3",
        "type": "t_mapping(t_address,t_array(t_uint256)dyn_storage)"
      },
      {
        "astId": 1897,
        "contract": "contracts/PaymentSBT.sol:PaymentSBT",
        "label": "recipientPayments",
        "offset": 0,
        "slot": "4",
        "type": "t_mapping(t_address,t_array(t_uint256)dyn_storage)"
      },
      {
        "astId": 1899,
        "contract": "contracts/PaymentSBT.sol:PaymentSBT",
        "label": "_tokenCounter",
        "offset": 0,
        "slot": "5",
        "type": "t_uint256"
      },
      {
        "astId": 1903,
        "contract": "contracts/PaymentSBT.sol:PaymentSBT",
        "label": "_owners",
        "offset": 0,
        "slot": "6",
        "type": "t_mapping(t_uint256,t_address)"
      },
      {
        "astId": 1907,
        "contract": "contracts/PaymentSBT.sol:PaymentSBT",
        "label": "_balances",
        "offset": 0,
        "slot": "7",
        "type": "t_mapping(t_address,t_uint256)"
      },
      {
        "astId": 1912,
        "contract": "contracts/PaymentSBT.sol:PaymentSBT",
        "label": "tokenRarity",
        "offset": 0,
        "slot": "8",
        "type": "t_mapping(t_uint256,t_enum(Rarity)1857)"
      },
      {
        "astId": 1918,
        "contract": "contracts/PaymentSBT.sol:PaymentSBT",
        "label": "tokensByRarity",
        "offset": 0,
        "slot": "9",
        "type": "t_mapping(t_enum(Rarity)1857,t_array(t_uint256)dyn_storage)"
      },
      {
        "astId": 1926,
        "contract": "contracts/PaymentSBT.sol:PaymentSBT",
        "label": "userTokensByRarity",
        "offset": 0,
        "slot": "10",
        "type": "t_mapping(t_address,t_mapping(t_enum(Rarity)1857,t_array(t_uint256)dyn_storage))"
      },
      {
        "astId": 1931,
        "contract": "contracts/PaymentSBT.sol:PaymentSBT",
        "label": "referrerTokens",
        "offset": 0,
        "slot": "11",
        "type": "t_mapping(t_string_memory_ptr,t_array(t_uint256)dyn_storage)"
      },
      {
        "astId": 1934,
        "contract": "contracts/PaymentSBT.sol:PaymentSBT",
        "label": "referrerList",
        "offset": 0,
        "slot": "12",
        "type": "t_array(t_string_storage)dyn_storage"
      },
      {
        "astId": 1938,
        "contract": "contracts/PaymentSBT.sol:PaymentSBT",
        "label": "referrerExists",
        "offset": 0,
        "slot": "13",
        "type": "t_mapping(t_string_memory_ptr,t_bool)"
      }
    ],
    "types": {
      "t_address": {
        "encoding": "inplace",
        "label": "address",
        "numberOfBytes": "20"
      },
      "t_array(t_string_storage)dyn_storage": {
        "base": "t_string_storage",
        "encoding": "dynamic_array",
        "label": "string[]",
        "numberOfBytes": "32"
      },
      "t_array(t_uint256)dyn_storage": {
        "base": "t_uint256",
        "encoding": "dynamic_array",
        "label": "uint256[]",
        "numberOfBytes": "32"
      },
      "t_bool": {
        "encoding": "inplace",
        "label": "bool",
        "numberOfBytes": "1"
      },
      "t_enum(Rarity)1857": {
        "encoding": "inplace",
        "label": "enum PaymentSBT.Rarity",
        "numberOfBytes": "1"
      },
      "t_mapping(t_address,t_array(t_uint256)dyn_storage)": {
        "encoding": "mapping",
        "key": "t_address",
        "label": "mapping(address => uint256[])",
        "numberOfBytes": "32",
        "value": "t_array(t_uint256)dyn_storage"
      },
      "t_mapping(t_address,t_mapping(t_enum(Rarity)1857,t_array(t_uint256)dyn_storage))": {
        "encoding": "mapping",
        "key": "t_address",
        "label": "mapping(address => mapping(enum PaymentSBT.Rarity => uint256[]))",
        "numberOfBytes": "32",
        "value": "t_mapping(t_enum(Rarity)1857,t_array(t_uint256)dyn_storage)"
      },
      "t_mapping(t_address,t_uint256)": {
        "encoding": "mapping",
        "key": "t_address",
        "label": "mapping(address => uint256)",
        "numberOfBytes": "32",
        "value": "t_uint256"
      },
      "t_mapping(t_enum(Rarity)1857,t_array(t_uint256)dyn_storage)": {
        "encoding": "mapping",
        "key": "t_enum(Rarity)1857",
        "label": "mapping(enum PaymentSBT.Rarity => uint256[])",
        "numberOfBytes": "32",
        "value": "t_array(t_uint256)dyn_storage"
      },
      "t_mapping(t_string_memory_ptr,t_array(t_uint256)dyn_storage)": {
        "encoding": "mapping",
        "key": "t_string_memory_ptr",
        "label": "mapping(string => uint256[])",
        "numberOfBytes": "32",
        "value": "t_array(t_uint256)dyn_storage"
      },
      "t_mapping(t_string_memory_ptr,t_bool)": {
        "encoding": "mapping",
        "key": "t_string_memory_ptr",
        "label": "mapping(string => bool)",
        "numberOfBytes": "32",
        "value": "t_bool"
      },
      "t_mapping(t_uint256,t_address)": {
        "encoding": "mapping",
        "key": "t_uint256",
        "label": "mapping(uint256 => address)",
        "numberOfBytes": "32",
        "value": "t_address"
      },
      "t_mapping(t_uint256,t_enum(Rarity)1857)": {
        "encoding": "mapping",
        "key": "t_uint256",
        "label": "mapping(uint256 => enum PaymentSBT.Rarity)",
        "numberOfBytes": "32",
        "value": "t_enum(Rarity)1857"
      },
      "t_mapping(t_uint256,t_struct(PaymentInfo)1882_storage)": {
        "encoding": "mapping",
        "key": "t_uint256",
        "label": "mapping(uint256 => struct PaymentSBT.PaymentInfo)",
        "numberOfBytes": "32",
        "value": "t_struct(PaymentInfo)1882_storage"
      },
      "t_string_memory_ptr": {
        "encoding": "bytes",
        "label": "string",
        "numberOfBytes": "32"
      },
      "t_string_storage": {
        "encoding": "bytes",
        "label": "string",
        "numberOfBytes": "32"
      },
      "t_struct(PaymentInfo)1882_storage": {
        "encoding": "inplace",
        "label": "struct PaymentSBT.PaymentInfo",
        "members": [
          {
            "astId": 1868,
            "contract": "contracts/PaymentSBT.sol:PaymentSBT",
            "label": "amount",
            "offset": 0,
            "slot": "0",
            "type": "t_uint256"
          },
          {
            "astId": 1870,
            "contract": "contracts/PaymentSBT.sol:PaymentSBT",
            "label": "payer",
            "offset": 0,
            "slot": "1",
            "type": "t_address"
          },
          {
            "astId": 1872,
            "contract": "contracts/PaymentSBT.sol:PaymentSBT",
            "label": "recipient",
            "offset": 0,
            "slot": "2",
            "type": "t_address"
          },
          {
            "astId": 1874,
            "contract": "contracts/PaymentSBT.sol:PaymentSBT",
            "label": "timestamp",
            "offset": 0,
            "slot": "3",
            "type": "t_uint256"
          },
          {
            "astId": 1876,
            "contract": "contracts/PaymentSBT.sol:PaymentSBT",
            "label": "description",
            "offset": 0,
            "slot": "4",
            "type": "t_string_storage"
          },
          {
            "astId": 1879,
            "contract": "contracts/PaymentSBT.sol:PaymentSBT",
            "label": "rarity",
            "offset": 0,
            "slot": "5",
            "type": "t_enum(Rarity)1857"
          },
          {
            "astId": 1881,
            "contract": "contracts/PaymentSBT.sol:PaymentSBT",
            "label": "referrer",
            "offset": 0,
            "slot": "6",
            "type": "t_string_storage"
          }
        ],
        "numberOfBytes": "224"
      },
      "t_uint256": {
        "encoding": "inplace",
        "label": "uint256",
        "numberOfBytes": "32"
      }
    }
  }
}