{
  "address": "0xa678cbEF73eDBcF570fd52e37fC9b26d496c5f82",
  "abi": [
    {
      "inputs": [],
      "name": "ReentrancyGuardReentrantCall",
      "type": "error"
    },
    {
      "anonymous": false,
      "inputs": [
        {
          "indexed": true,
          "internalType": "uint256",
          "name": "agentId",
          "type": "uint256"
        },
        {
          "indexed": true,
          "internalType": "address",
          "name": "reviewer",
          "type": "address"
        },
        {
          "indexed": false,
          "internalType": "uint8",
          "name": "rating",
          "type": "uint8"
        },
        {
          "indexed": false,
          "internalType": "string",
          "name": "comment",
          "type": "string"
        },
        {
          "indexed": false,
          "internalType": "uint256",
          "name": "timestamp",
          "type": "uint256"
        }
      ],
      "name": "FeedbackSubmitted",
      "type": "event"
    },
    {
      "inputs": [
        {
          "internalType": "uint256",
          "name": "",
          "type": "uint256"
        },
        {
          "internalType": "uint256",
          "name": "",
          "type": "uint256"
        }
      ],
      "name": "feedbacks",
      "outputs": [
        {
          "internalType": "address",
          "name": "reviewer",
          "type": "address"
        },
        {
          "internalType": "uint8",
          "name": "rating",
          "type": "uint8"
        },
        {
          "internalType": "string",
          "name": "comment",
          "type": "string"
        },
        {
          "internalType": "uint256",
          "name": "timestamp",
          "type": "uint256"
        }
      ],
      "stateMutability": "view",
      "type": "function"
    },
    {
      "inputs": [
        {
          "internalType": "uint256",
          "name": "agentId",
          "type": "uint256"
        }
      ],
      "name": "getAverageRating",
      "outputs": [
        {
          "internalType": "uint256",
          "name": "rating",
          "type": "uint256"
        }
      ],
      "stateMutability": "view",
      "type": "function"
    },
    {
      "inputs": [
        {
          "internalType": "uint256",
          "name": "agentId",
          "type": "uint256"
        }
      ],
      "name": "getFeedbacks",
      "outputs": [
        {
          "components": [
            {
              "internalType": "address",
              "name": "reviewer",
              "type": "address"
            },
            {
              "internalType": "uint8",
              "name": "rating",
              "type": "uint8"
            },
            {
              "internalType": "string",
              "name": "comment",
              "type": "string"
            },
            {
              "internalType": "uint256",
              "name": "timestamp",
              "type": "uint256"
            }
          ],
          "internalType": "struct ReputationRegistry.Feedback[]",
          "name": "feedbacksArray",
          "type": "tuple[]"
        }
      ],
      "stateMutability": "view",
      "type": "function"
    },
    {
      "inputs": [
        {
          "internalType": "uint256",
          "name": "agentId",
          "type": "uint256"
        }
      ],
      "name": "getReputation",
      "outputs": [
        {
          "internalType": "uint256",
          "name": "totalRatings",
          "type": "uint256"
        },
        {
          "internalType": "uint256",
          "name": "averageRating",
          "type": "uint256"
        },
        {
          "internalType": "uint256",
          "name": "feedbackCount",
          "type": "uint256"
        }
      ],
      "stateMutability": "view",
      "type": "function"
    },
    {
      "inputs": [
        {
          "internalType": "uint256",
          "name": "",
          "type": "uint256"
        },
        {
          "internalType": "address",
          "name": "",
          "type": "address"
        }
      ],
      "name": "hasReviewed",
      "outputs": [
        {
          "internalType": "bool",
          "name": "",
          "type": "bool"
        }
      ],
      "stateMutability": "view",
      "type": "function"
    },
    {
      "inputs": [
        {
          "internalType": "uint256",
          "name": "",
          "type": "uint256"
        }
      ],
      "name": "reputations",
      "outputs": [
        {
          "internalType": "uint256",
          "name": "totalRatings",
          "type": "uint256"
        },
        {
          "internalType": "uint256",
          "name": "sumRatings",
          "type": "uint256"
        },
        {
          "internalType": "uint256",
          "name": "averageRating",
          "type": "uint256"
        },
        {
          "internalType": "uint256",
          "name": "feedbackCount",
          "type": "uint256"
        }
      ],
      "stateMutability": "view",
      "type": "function"
    },
    {
      "inputs": [
        {
          "internalType": "uint256",
          "name": "agentId",
          "type": "uint256"
        },
        {
          "internalType": "uint8",
          "name": "rating",
          "type": "uint8"
        },
        {
          "internalType": "string",
          "name": "comment",
          "type": "string"
        }
      ],
      "name": "submitFeedback",
      "outputs": [],
      "stateMutability": "nonpayable",
      "type": "function"
    }
  ],
  "transactionHash": "0x13c663814a26de8a934fc3b74ed762f239eb2e5da5bee08f32486010d52feb84",
  "args": [],
  "numDeployments": 2,
  "solcInputHash": "1a6a9ab9f253dba114579a627a9a11ef",
  "bytecode": "0x608060405234801561001057600080fd5b506001600055610b61806100256000396000f3fe608060405234801561001057600080fd5b506004361061007d5760003560e01c80637c7198cc1161005b5780637c7198cc1461012e57806389370d8b1461016c5780638cd8336d146101da578063e7fe5470146101fd57600080fd5b806317b7e03e1461008257806328f69e0d146100b857806372fa9b85146100d8575b600080fd5b6100a56100903660046106d1565b60009081526001602052604090206002015490565b6040519081526020015b60405180910390f35b6100cb6100c63660046106d1565b610212565b6040516100af9190610730565b61010e6100e63660046106d1565b6001602081905260009182526040909120805491810154600282015460039092015490919084565b6040805194855260208501939093529183015260608201526080016100af565b61015c61013c3660046107ca565b600360209081526000928352604080842090915290825290205460ff1681565b60405190151581526020016100af565b6101bf61017a3660046106d1565b60009081526001602081815260409283902083516080810185528154808252938201549281019290925260028101549382018490526003015460609091018190529092565b604080519384526020840192909252908201526060016100af565b6101ed6101e8366004610806565b610346565b6040516100af9493929190610828565b61021061020b36600461087c565b610426565b005b606060026000838152602001908152602001600020805480602002602001604051908101604052809291908181526020016000905b8282101561033b576000848152602090819020604080516080810182526003860290920180546001600160a01b0381168452600160a01b900460ff1693830193909352600183018054929392918401916102a09061094f565b80601f01602080910402602001604051908101604052809291908181526020018280546102cc9061094f565b80156103195780601f106102ee57610100808354040283529160200191610319565b820191906000526020600020905b8154815290600101906020018083116102fc57829003601f168201915b5050505050815260200160028201548152505081526020019060010190610247565b505050509050919050565b6002602052816000526040600020818154811061036257600080fd5b6000918252602090912060039091020180546001820180546001600160a01b0383169550600160a01b90920460ff1693509061039d9061094f565b80601f01602080910402602001604051908101604052809291908181526020018280546103c99061094f565b80156104165780601f106103eb57610100808354040283529160200191610416565b820191906000526020600020905b8154815290600101906020018083116103f957829003601f168201915b5050505050908060020154905084565b61042e6106a7565b60018260ff1610158015610446575060058260ff1611155b6104a25760405162461bcd60e51b815260206004820152602260248201527f52657075746174696f6e52656769737472793a20496e76616c696420726174696044820152616e6760f01b60648201526084015b60405180910390fd5b600083815260036020908152604080832033845290915290205460ff16156105185760405162461bcd60e51b8152602060048201526024808201527f52657075746174696f6e52656769737472793a20416c72656164792072657669604482015263195dd95960e21b6064820152608401610499565b6000838152600160208190526040822080549092839161053990849061099f565b925050819055508260ff16816001016000828254610557919061099f565b90915550508054600182015461056f906103e86109b8565b61057991906109cf565b81600201819055506001816003016000828254610596919061099f565b90915550506000848152600260209081526040808320815160808101835233815260ff80891682860190815293820188815242606084015283546001818101865594885295909620825160039096020180549451909116600160a01b026001600160a81b03199094166001600160a01b039590951694909417929092178355925190928201906106269082610a3f565b5060609190910151600290910155600084815260036020908152604080832033808552925291829020805460ff19166001179055905185907f3af365713bc7a36dae0bad6bb00f132a533971b6957d66a963580c66e031c8199061068f90879087904290610aff565b60405180910390a3506106a26001600055565b505050565b6002600054036106ca57604051633ee5aeb560e01b815260040160405180910390fd5b6002600055565b6000602082840312156106e357600080fd5b5035919050565b6000815180845260005b81811015610710576020818501810151868301820152016106f4565b506000602082860101526020601f19601f83011685010191505092915050565b60006020808301818452808551808352604092508286019150828160051b87010184880160005b838110156107bc57888303603f19018552815180516001600160a01b031684528781015160ff16888501528681015160808886018190529061079b828701826106ea565b60609384015196909301959095525094870194925090860190600101610757565b509098975050505050505050565b600080604083850312156107dd57600080fd5b8235915060208301356001600160a01b03811681146107fb57600080fd5b809150509250929050565b6000806040838503121561081957600080fd5b50508035926020909101359150565b6001600160a01b038516815260ff84166020820152608060408201819052600090610855908301856106ea565b905082606083015295945050505050565b634e487b7160e01b600052604160045260246000fd5b60008060006060848603121561089157600080fd5b83359250602084013560ff811681146108a957600080fd5b9150604084013567ffffffffffffffff808211156108c657600080fd5b818601915086601f8301126108da57600080fd5b8135818111156108ec576108ec610866565b604051601f8201601f19908116603f0116810190838211818310171561091457610914610866565b8160405282815289602084870101111561092d57600080fd5b8260208601602083013760006020848301015280955050505050509250925092565b600181811c9082168061096357607f821691505b60208210810361098357634e487b7160e01b600052602260045260246000fd5b50919050565b634e487b7160e01b600052601160045260246000fd5b808201808211156109b2576109b2610989565b92915050565b80820281158282048414176109b2576109b2610989565b6000826109ec57634e487b7160e01b600052601260045260246000fd5b500490565b601f8211156106a257600081815260208120601f850160051c81016020861015610a185750805b601f850160051c820191505b81811015610a3757828155600101610a24565b505050505050565b815167ffffffffffffffff811115610a5957610a59610866565b610a6d81610a67845461094f565b846109f1565b602080601f831160018114610aa25760008415610a8a5750858301515b600019600386901b1c1916600185901b178555610a37565b600085815260208120601f198616915b82811015610ad157888601518255948401946001909101908401610ab2565b5085821015610aef5787850151600019600388901b60f8161c191681555b5050505050600190811b01905550565b60ff84168152606060208201526000610b1b60608301856106ea565b905082604083015294935050505056fea2646970667358221220d56f0e0979d8ea951a89a39a2cb5710405b2d4654be72133c66ed893d55f4a3f64736f6c63430008140033",
  "devdoc": {
    "details": "管理 Agent 的声誉、评分和反馈使用 OpenZeppelin ReentrancyGuard 防止重入攻击",
    "errors": {
      "ReentrancyGuardReentrantCall()": [
        {
          "details": "Unauthorized reentrant call."
        }
      ]
    },
    "kind": "dev",
    "methods": {
      "getAverageRating(uint256)": {
        "params": {
          "agentId": "Agent ID"
        },
        "returns": {
          "rating": "平均评分（浮点数表示，例如 3500 = 3.5）"
        }
      },
      "getFeedbacks(uint256)": {
        "params": {
          "agentId": "Agent ID"
        },
        "returns": {
          "feedbacksArray": "反馈数组"
        }
      },
      "getReputation(uint256)": {
        "params": {
          "agentId": "Agent ID"
        },
        "returns": {
          "averageRating": "平均评分（放大 1000 倍）",
          "feedbackCount": "反馈数量",
          "totalRatings": "总评价数"
        }
      },
      "submitFeedback(uint256,uint8,string)": {
        "details": "使用 nonReentrant 防止重入攻击",
        "params": {
          "agentId": "Agent ID",
          "comment": "评价内容",
          "rating": "评分 (1-5)"
        }
      }
    },
    "title": "ReputationRegistry",
    "version": 1
  },
  "userdoc": {
    "kind": "user",
    "methods": {
      "getAverageRating(uint256)": {
        "notice": "获取 Agent 的平均评分（1-5）"
      },
      "getFeedbacks(uint256)": {
        "notice": "获取 Agent 的所有反馈"
      },
      "getReputation(uint256)": {
        "notice": "获取 Agent 的声誉评分"
      },
      "submitFeedback(uint256,uint8,string)": {
        "notice": "提交对 Agent 的反馈"
      }
    },
    "notice": "EIP-8004 声誉注册表",
    "version": 1
  },
  "storageLayout": {
    "storage": [
      {
        "astId": 441,
        "contract": "contracts/EIP8004/ReputationRegistry.sol:ReputationRegistry",
        "label": "_status",
        "offset": 0,
        "slot": "0",
        "type": "t_uint256"
      },
      {
        "astId": 1325,
        "contract": "contracts/EIP8004/ReputationRegistry.sol:ReputationRegistry",
        "label": "reputations",
        "offset": 0,
        "slot": "1",
        "type": "t_mapping(t_uint256,t_struct(ReputationScore)1320_storage)"
      },
      {
        "astId": 1331,
        "contract": "contracts/EIP8004/ReputationRegistry.sol:ReputationRegistry",
        "label": "feedbacks",
        "offset": 0,
        "slot": "2",
        "type": "t_mapping(t_uint256,t_array(t_struct(Feedback)1311_storage)dyn_storage)"
      },
      {
        "astId": 1337,
        "contract": "contracts/EIP8004/ReputationRegistry.sol:ReputationRegistry",
        "label": "hasReviewed",
        "offset": 0,
        "slot": "3",
        "type": "t_mapping(t_uint256,t_mapping(t_address,t_bool))"
      }
    ],
    "types": {
      "t_address": {
        "encoding": "inplace",
        "label": "address",
        "numberOfBytes": "20"
      },
      "t_array(t_struct(Feedback)1311_storage)dyn_storage": {
        "base": "t_struct(Feedback)1311_storage",
        "encoding": "dynamic_array",
        "label": "struct ReputationRegistry.Feedback[]",
        "numberOfBytes": "32"
      },
      "t_bool": {
        "encoding": "inplace",
        "label": "bool",
        "numberOfBytes": "1"
      },
      "t_mapping(t_address,t_bool)": {
        "encoding": "mapping",
        "key": "t_address",
        "label": "mapping(address => bool)",
        "numberOfBytes": "32",
        "value": "t_bool"
      },
      "t_mapping(t_uint256,t_array(t_struct(Feedback)1311_storage)dyn_storage)": {
        "encoding": "mapping",
        "key": "t_uint256",
        "label": "mapping(uint256 => struct ReputationRegistry.Feedback[])",
        "numberOfBytes": "32",
        "value": "t_array(t_struct(Feedback)1311_storage)dyn_storage"
      },
      "t_mapping(t_uint256,t_mapping(t_address,t_bool))": {
        "encoding": "mapping",
        "key": "t_uint256",
        "label": "mapping(uint256 => mapping(address => bool))",
        "numberOfBytes": "32",
        "value": "t_mapping(t_address,t_bool)"
      },
      "t_mapping(t_uint256,t_struct(ReputationScore)1320_storage)": {
        "encoding": "mapping",
        "key": "t_uint256",
        "label": "mapping(uint256 => struct ReputationRegistry.ReputationScore)",
        "numberOfBytes": "32",
        "value": "t_struct(ReputationScore)1320_storage"
      },
      "t_string_storage": {
        "encoding": "bytes",
        "label": "string",
        "numberOfBytes": "32"
      },
      "t_struct(Feedback)1311_storage": {
        "encoding": "inplace",
        "label": "struct ReputationRegistry.Feedback",
        "members": [
          {
            "astId": 1304,
            "contract": "contracts/EIP8004/ReputationRegistry.sol:ReputationRegistry",
            "label": "reviewer",
            "offset": 0,
            "slot": "0",
            "type": "t_address"
          },
          {
            "astId": 1306,
            "contract": "contracts/EIP8004/ReputationRegistry.sol:ReputationRegistry",
            "label": "rating",
            "offset": 20,
            "slot": "0",
            "type": "t_uint8"
          },
          {
            "astId": 1308,
            "contract": "contracts/EIP8004/ReputationRegistry.sol:ReputationRegistry",
            "label": "comment",
            "offset": 0,
            "slot": "1",
            "type": "t_string_storage"
          },
          {
            "astId": 1310,
            "contract": "contracts/EIP8004/ReputationRegistry.sol:ReputationRegistry",
            "label": "timestamp",
            "offset": 0,
            "slot": "2",
            "type": "t_uint256"
          }
        ],
        "numberOfBytes": "96"
      },
      "t_struct(ReputationScore)1320_storage": {
        "encoding": "inplace",
        "label": "struct ReputationRegistry.ReputationScore",
        "members": [
          {
            "astId": 1313,
            "contract": "contracts/EIP8004/ReputationRegistry.sol:ReputationRegistry",
            "label": "totalRatings",
            "offset": 0,
            "slot": "0",
            "type": "t_uint256"
          },
          {
            "astId": 1315,
            "contract": "contracts/EIP8004/ReputationRegistry.sol:ReputationRegistry",
            "label": "sumRatings",
            "offset": 0,
            "slot": "1",
            "type": "t_uint256"
          },
          {
            "astId": 1317,
            "contract": "contracts/EIP8004/ReputationRegistry.sol:ReputationRegistry",
            "label": "averageRating",
            "offset": 0,
            "slot": "2",
            "type": "t_uint256"
          },
          {
            "astId": 1319,
            "contract": "contracts/EIP8004/ReputationRegistry.sol:ReputationRegistry",
            "label": "feedbackCount",
            "offset": 0,
            "slot": "3",
            "type": "t_uint256"
          }
        ],
        "numberOfBytes": "128"
      },
      "t_uint256": {
        "encoding": "inplace",
        "label": "uint256",
        "numberOfBytes": "32"
      },
      "t_uint8": {
        "encoding": "inplace",
        "label": "uint8",
        "numberOfBytes": "1"
      }
    }
  }
}