{
  "address": "0x44da195b78E0e1843ffDd651Bd713c6aE68d165a",
  "abi": [
    {
      "anonymous": false,
      "inputs": [
        {
          "indexed": true,
          "internalType": "uint256",
          "name": "agentId",
          "type": "uint256"
        },
        {
          "indexed": true,
          "internalType": "address",
          "name": "reviewer",
          "type": "address"
        },
        {
          "indexed": false,
          "internalType": "uint8",
          "name": "rating",
          "type": "uint8"
        },
        {
          "indexed": false,
          "internalType": "string",
          "name": "comment",
          "type": "string"
        },
        {
          "indexed": false,
          "internalType": "uint256",
          "name": "timestamp",
          "type": "uint256"
        }
      ],
      "name": "FeedbackSubmitted",
      "type": "event"
    },
    {
      "inputs": [
        {
          "internalType": "uint256",
          "name": "",
          "type": "uint256"
        },
        {
          "internalType": "uint256",
          "name": "",
          "type": "uint256"
        }
      ],
      "name": "feedbacks",
      "outputs": [
        {
          "internalType": "address",
          "name": "reviewer",
          "type": "address"
        },
        {
          "internalType": "uint8",
          "name": "rating",
          "type": "uint8"
        },
        {
          "internalType": "string",
          "name": "comment",
          "type": "string"
        },
        {
          "internalType": "uint256",
          "name": "timestamp",
          "type": "uint256"
        }
      ],
      "stateMutability": "view",
      "type": "function"
    },
    {
      "inputs": [
        {
          "internalType": "uint256",
          "name": "agentId",
          "type": "uint256"
        }
      ],
      "name": "getAverageRating",
      "outputs": [
        {
          "internalType": "uint256",
          "name": "rating",
          "type": "uint256"
        }
      ],
      "stateMutability": "view",
      "type": "function"
    },
    {
      "inputs": [
        {
          "internalType": "uint256",
          "name": "agentId",
          "type": "uint256"
        }
      ],
      "name": "getFeedbacks",
      "outputs": [
        {
          "components": [
            {
              "internalType": "address",
              "name": "reviewer",
              "type": "address"
            },
            {
              "internalType": "uint8",
              "name": "rating",
              "type": "uint8"
            },
            {
              "internalType": "string",
              "name": "comment",
              "type": "string"
            },
            {
              "internalType": "uint256",
              "name": "timestamp",
              "type": "uint256"
            }
          ],
          "internalType": "struct ReputationRegistry.Feedback[]",
          "name": "feedbacksArray",
          "type": "tuple[]"
        }
      ],
      "stateMutability": "view",
      "type": "function"
    },
    {
      "inputs": [
        {
          "internalType": "uint256",
          "name": "agentId",
          "type": "uint256"
        }
      ],
      "name": "getReputation",
      "outputs": [
        {
          "internalType": "uint256",
          "name": "totalRatings",
          "type": "uint256"
        },
        {
          "internalType": "uint256",
          "name": "averageRating",
          "type": "uint256"
        },
        {
          "internalType": "uint256",
          "name": "feedbackCount",
          "type": "uint256"
        }
      ],
      "stateMutability": "view",
      "type": "function"
    },
    {
      "inputs": [
        {
          "internalType": "uint256",
          "name": "",
          "type": "uint256"
        },
        {
          "internalType": "address",
          "name": "",
          "type": "address"
        }
      ],
      "name": "hasReviewed",
      "outputs": [
        {
          "internalType": "bool",
          "name": "",
          "type": "bool"
        }
      ],
      "stateMutability": "view",
      "type": "function"
    },
    {
      "inputs": [
        {
          "internalType": "uint256",
          "name": "",
          "type": "uint256"
        }
      ],
      "name": "reputations",
      "outputs": [
        {
          "internalType": "uint256",
          "name": "totalRatings",
          "type": "uint256"
        },
        {
          "internalType": "uint256",
          "name": "sumRatings",
          "type": "uint256"
        },
        {
          "internalType": "uint256",
          "name": "averageRating",
          "type": "uint256"
        },
        {
          "internalType": "uint256",
          "name": "feedbackCount",
          "type": "uint256"
        }
      ],
      "stateMutability": "view",
      "type": "function"
    },
    {
      "inputs": [
        {
          "internalType": "uint256",
          "name": "agentId",
          "type": "uint256"
        },
        {
          "internalType": "uint8",
          "name": "rating",
          "type": "uint8"
        },
        {
          "internalType": "string",
          "name": "comment",
          "type": "string"
        }
      ],
      "name": "submitFeedback",
      "outputs": [],
      "stateMutability": "nonpayable",
      "type": "function"
    }
  ],
  "transactionHash": "0xb4321face8bfbaa98f5530692eb4f11beec445134626274647e99d0a2c1135b8",
  "args": [],
  "numDeployments": 1,
  "solcInputHash": "82532c12664fad80c4d3b76a7b6c9ce6",
  "bytecode": "0x608060405234801561001057600080fd5b50610b24806100206000396000f3fe608060405234801561001057600080fd5b506004361061007d5760003560e01c80637c7198cc1161005b5780637c7198cc1461012d57806389370d8b1461016b5780638cd8336d146101da578063e7fe5470146101fd57600080fd5b806317b7e03e1461008257806328f69e0d146100b857806372fa9b85146100d8575b600080fd5b6100a5610090366004610693565b60009081526020819052604090206002015490565b6040519081526020015b60405180910390f35b6100cb6100c6366004610693565b610212565b6040516100af91906106f2565b61010d6100e6366004610693565b60006020819052908152604090208054600182015460028301546003909301549192909184565b6040805194855260208501939093529183015260608201526080016100af565b61015b61013b36600461078c565b600260209081526000928352604080842090915290825290205460ff1681565b60405190151581526020016100af565b6101bf610179366004610693565b6000908152602081815260409182902082516080810184528154808252600183015493820193909352600282015493810184905260039091015460609091018190529092565b604080519384526020840192909252908201526060016100af565b6101ed6101e83660046107c8565b610346565b6040516100af94939291906107ea565b61021061020b36600461083e565b610426565b005b606060016000838152602001908152602001600020805480602002602001604051908101604052809291908181526020016000905b8282101561033b576000848152602090819020604080516080810182526003860290920180546001600160a01b0381168452600160a01b900460ff1693830193909352600183018054929392918401916102a090610911565b80601f01602080910402602001604051908101604052809291908181526020018280546102cc90610911565b80156103195780601f106102ee57610100808354040283529160200191610319565b820191906000526020600020905b8154815290600101906020018083116102fc57829003601f168201915b5050505050815260200160028201548152505081526020019060010190610247565b505050509050919050565b6001602052816000526040600020818154811061036257600080fd5b6000918252602090912060039091020180546001820180546001600160a01b0383169550600160a01b90920460ff1693509061039d90610911565b80601f01602080910402602001604051908101604052809291908181526020018280546103c990610911565b80156104165780601f106103eb57610100808354040283529160200191610416565b820191906000526020600020905b8154815290600101906020018083116103f957829003601f168201915b5050505050908060020154905084565b60018260ff161015801561043e575060058260ff1611155b61049a5760405162461bcd60e51b815260206004820152602260248201527f52657075746174696f6e52656769737472793a20496e76616c696420726174696044820152616e6760f01b60648201526084015b60405180910390fd5b600083815260026020908152604080832033845290915290205460ff16156105105760405162461bcd60e51b8152602060048201526024808201527f52657075746174696f6e52656769737472793a20416c72656164792072657669604482015263195dd95960e21b6064820152608401610491565b600083815260208190526040812080549091600191839190610533908490610961565b925050819055508260ff168160010160008282546105519190610961565b909155505080546001820154610569906103e861097a565b6105739190610991565b816002018190555060018160030160008282546105909190610961565b90915550506000848152600160208181526040808420815160808101835233815260ff808a168286019081529382018981524260608401528354808801855593885294909620815160039093020180549351909616600160a01b026001600160a81b03199093166001600160a01b039290921691909117919091178455905190929182019061061f9082610a02565b506060919091015160029182015560008581526020918252604080822033808452935290819020805460ff191660011790555185907f3af365713bc7a36dae0bad6bb00f132a533971b6957d66a963580c66e031c8199061068590879087904290610ac2565b60405180910390a350505050565b6000602082840312156106a557600080fd5b5035919050565b6000815180845260005b818110156106d2576020818501810151868301820152016106b6565b506000602082860101526020601f19601f83011685010191505092915050565b60006020808301818452808551808352604092508286019150828160051b87010184880160005b8381101561077e57888303603f19018552815180516001600160a01b031684528781015160ff16888501528681015160808886018190529061075d828701826106ac565b60609384015196909301959095525094870194925090860190600101610719565b509098975050505050505050565b6000806040838503121561079f57600080fd5b8235915060208301356001600160a01b03811681146107bd57600080fd5b809150509250929050565b600080604083850312156107db57600080fd5b50508035926020909101359150565b6001600160a01b038516815260ff84166020820152608060408201819052600090610817908301856106ac565b905082606083015295945050505050565b634e487b7160e01b600052604160045260246000fd5b60008060006060848603121561085357600080fd5b83359250602084013560ff8116811461086b57600080fd5b9150604084013567ffffffffffffffff8082111561088857600080fd5b818601915086601f83011261089c57600080fd5b8135818111156108ae576108ae610828565b604051601f8201601f19908116603f011681019083821181831017156108d6576108d6610828565b816040528281528960208487010111156108ef57600080fd5b8260208601602083013760006020848301015280955050505050509250925092565b600181811c9082168061092557607f821691505b60208210810361094557634e487b7160e01b600052602260045260246000fd5b50919050565b634e487b7160e01b600052601160045260246000fd5b808201808211156109745761097461094b565b92915050565b80820281158282048414176109745761097461094b565b6000826109ae57634e487b7160e01b600052601260045260246000fd5b500490565b601f8211156109fd57600081815260208120601f850160051c810160208610156109da5750805b601f850160051c820191505b818110156109f9578281556001016109e6565b5050505b505050565b815167ffffffffffffffff811115610a1c57610a1c610828565b610a3081610a2a8454610911565b846109b3565b602080601f831160018114610a655760008415610a4d5750858301515b600019600386901b1c1916600185901b1785556109f9565b600085815260208120601f198616915b82811015610a9457888601518255948401946001909101908401610a75565b5085821015610ab25787850151600019600388901b60f8161c191681555b5050505050600190811b01905550565b60ff84168152606060208201526000610ade60608301856106ac565b905082604083015294935050505056fea26469706673582212201301dad796017db833a0478ef26052cfcb529e4e12e90998179f89a6164902ce64736f6c63430008140033",
  "devdoc": {
    "details": "管理 Agent 的声誉、评分和反馈",
    "kind": "dev",
    "methods": {
      "getAverageRating(uint256)": {
        "params": {
          "agentId": "Agent ID"
        },
        "returns": {
          "rating": "平均评分（浮点数表示，例如 3500 = 3.5）"
        }
      },
      "getFeedbacks(uint256)": {
        "params": {
          "agentId": "Agent ID"
        },
        "returns": {
          "feedbacksArray": "反馈数组"
        }
      },
      "getReputation(uint256)": {
        "params": {
          "agentId": "Agent ID"
        },
        "returns": {
          "averageRating": "平均评分（放大 1000 倍）",
          "feedbackCount": "反馈数量",
          "totalRatings": "总评价数"
        }
      },
      "submitFeedback(uint256,uint8,string)": {
        "params": {
          "agentId": "Agent ID",
          "comment": "评价内容",
          "rating": "评分 (1-5)"
        }
      }
    },
    "title": "ReputationRegistry",
    "version": 1
  },
  "userdoc": {
    "kind": "user",
    "methods": {
      "getAverageRating(uint256)": {
        "notice": "获取 Agent 的平均评分（1-5）"
      },
      "getFeedbacks(uint256)": {
        "notice": "获取 Agent 的所有反馈"
      },
      "getReputation(uint256)": {
        "notice": "获取 Agent 的声誉评分"
      },
      "submitFeedback(uint256,uint8,string)": {
        "notice": "提交对 Agent 的反馈"
      }
    },
    "notice": "EIP-8004 声誉注册表",
    "version": 1
  },
  "storageLayout": {
    "storage": [
      {
        "astId": 680,
        "contract": "contracts/EIP8004/ReputationRegistry.sol:ReputationRegistry",
        "label": "reputations",
        "offset": 0,
        "slot": "0",
        "type": "t_mapping(t_uint256,t_struct(ReputationScore)675_storage)"
      },
      {
        "astId": 686,
        "contract": "contracts/EIP8004/ReputationRegistry.sol:ReputationRegistry",
        "label": "feedbacks",
        "offset": 0,
        "slot": "1",
        "type": "t_mapping(t_uint256,t_array(t_struct(Feedback)666_storage)dyn_storage)"
      },
      {
        "astId": 692,
        "contract": "contracts/EIP8004/ReputationRegistry.sol:ReputationRegistry",
        "label": "hasReviewed",
        "offset": 0,
        "slot": "2",
        "type": "t_mapping(t_uint256,t_mapping(t_address,t_bool))"
      }
    ],
    "types": {
      "t_address": {
        "encoding": "inplace",
        "label": "address",
        "numberOfBytes": "20"
      },
      "t_array(t_struct(Feedback)666_storage)dyn_storage": {
        "base": "t_struct(Feedback)666_storage",
        "encoding": "dynamic_array",
        "label": "struct ReputationRegistry.Feedback[]",
        "numberOfBytes": "32"
      },
      "t_bool": {
        "encoding": "inplace",
        "label": "bool",
        "numberOfBytes": "1"
      },
      "t_mapping(t_address,t_bool)": {
        "encoding": "mapping",
        "key": "t_address",
        "label": "mapping(address => bool)",
        "numberOfBytes": "32",
        "value": "t_bool"
      },
      "t_mapping(t_uint256,t_array(t_struct(Feedback)666_storage)dyn_storage)": {
        "encoding": "mapping",
        "key": "t_uint256",
        "label": "mapping(uint256 => struct ReputationRegistry.Feedback[])",
        "numberOfBytes": "32",
        "value": "t_array(t_struct(Feedback)666_storage)dyn_storage"
      },
      "t_mapping(t_uint256,t_mapping(t_address,t_bool))": {
        "encoding": "mapping",
        "key": "t_uint256",
        "label": "mapping(uint256 => mapping(address => bool))",
        "numberOfBytes": "32",
        "value": "t_mapping(t_address,t_bool)"
      },
      "t_mapping(t_uint256,t_struct(ReputationScore)675_storage)": {
        "encoding": "mapping",
        "key": "t_uint256",
        "label": "mapping(uint256 => struct ReputationRegistry.ReputationScore)",
        "numberOfBytes": "32",
        "value": "t_struct(ReputationScore)675_storage"
      },
      "t_string_storage": {
        "encoding": "bytes",
        "label": "string",
        "numberOfBytes": "32"
      },
      "t_struct(Feedback)666_storage": {
        "encoding": "inplace",
        "label": "struct ReputationRegistry.Feedback",
        "members": [
          {
            "astId": 659,
            "contract": "contracts/EIP8004/ReputationRegistry.sol:ReputationRegistry",
            "label": "reviewer",
            "offset": 0,
            "slot": "0",
            "type": "t_address"
          },
          {
            "astId": 661,
            "contract": "contracts/EIP8004/ReputationRegistry.sol:ReputationRegistry",
            "label": "rating",
            "offset": 20,
            "slot": "0",
            "type": "t_uint8"
          },
          {
            "astId": 663,
            "contract": "contracts/EIP8004/ReputationRegistry.sol:ReputationRegistry",
            "label": "comment",
            "offset": 0,
            "slot": "1",
            "type": "t_string_storage"
          },
          {
            "astId": 665,
            "contract": "contracts/EIP8004/ReputationRegistry.sol:ReputationRegistry",
            "label": "timestamp",
            "offset": 0,
            "slot": "2",
            "type": "t_uint256"
          }
        ],
        "numberOfBytes": "96"
      },
      "t_struct(ReputationScore)675_storage": {
        "encoding": "inplace",
        "label": "struct ReputationRegistry.ReputationScore",
        "members": [
          {
            "astId": 668,
            "contract": "contracts/EIP8004/ReputationRegistry.sol:ReputationRegistry",
            "label": "totalRatings",
            "offset": 0,
            "slot": "0",
            "type": "t_uint256"
          },
          {
            "astId": 670,
            "contract": "contracts/EIP8004/ReputationRegistry.sol:ReputationRegistry",
            "label": "sumRatings",
            "offset": 0,
            "slot": "1",
            "type": "t_uint256"
          },
          {
            "astId": 672,
            "contract": "contracts/EIP8004/ReputationRegistry.sol:ReputationRegistry",
            "label": "averageRating",
            "offset": 0,
            "slot": "2",
            "type": "t_uint256"
          },
          {
            "astId": 674,
            "contract": "contracts/EIP8004/ReputationRegistry.sol:ReputationRegistry",
            "label": "feedbackCount",
            "offset": 0,
            "slot": "3",
            "type": "t_uint256"
          }
        ],
        "numberOfBytes": "128"
      },
      "t_uint256": {
        "encoding": "inplace",
        "label": "uint256",
        "numberOfBytes": "32"
      },
      "t_uint8": {
        "encoding": "inplace",
        "label": "uint8",
        "numberOfBytes": "1"
      }
    }
  }
}