{
  "address": "0xcDC4794790D88deB28d9FF8E77a7fA0016F9EEFd",
  "abi": [
    {
      "inputs": [],
      "name": "ReentrancyGuardReentrantCall",
      "type": "error"
    },
    {
      "anonymous": false,
      "inputs": [
        {
          "indexed": true,
          "internalType": "uint256",
          "name": "validationId",
          "type": "uint256"
        },
        {
          "indexed": true,
          "internalType": "address",
          "name": "disputer",
          "type": "address"
        },
        {
          "indexed": false,
          "internalType": "string",
          "name": "reason",
          "type": "string"
        }
      ],
      "name": "DisputeRaised",
      "type": "event"
    },
    {
      "anonymous": false,
      "inputs": [
        {
          "indexed": true,
          "internalType": "uint256",
          "name": "validationId",
          "type": "uint256"
        },
        {
          "indexed": true,
          "internalType": "uint256",
          "name": "agentId",
          "type": "uint256"
        },
        {
          "indexed": true,
          "internalType": "address",
          "name": "validator",
          "type": "address"
        },
        {
          "indexed": false,
          "internalType": "enum ValidationRegistry.ValidationStatus",
          "name": "status",
          "type": "uint8"
        },
        {
          "indexed": false,
          "internalType": "string",
          "name": "proofURI",
          "type": "string"
        },
        {
          "indexed": false,
          "internalType": "uint256",
          "name": "timestamp",
          "type": "uint256"
        }
      ],
      "name": "ValidationSubmitted",
      "type": "event"
    },
    {
      "anonymous": false,
      "inputs": [
        {
          "indexed": true,
          "internalType": "uint256",
          "name": "validationId",
          "type": "uint256"
        },
        {
          "indexed": false,
          "internalType": "enum ValidationRegistry.ValidationStatus",
          "name": "newStatus",
          "type": "uint8"
        }
      ],
      "name": "ValidationUpdated",
      "type": "event"
    },
    {
      "inputs": [
        {
          "internalType": "uint256",
          "name": "",
          "type": "uint256"
        },
        {
          "internalType": "uint256",
          "name": "",
          "type": "uint256"
        }
      ],
      "name": "agentValidations",
      "outputs": [
        {
          "internalType": "uint256",
          "name": "",
          "type": "uint256"
        }
      ],
      "stateMutability": "view",
      "type": "function"
    },
    {
      "inputs": [
        {
          "internalType": "uint256",
          "name": "",
          "type": "uint256"
        }
      ],
      "name": "disputes",
      "outputs": [
        {
          "internalType": "uint256",
          "name": "validationId",
          "type": "uint256"
        },
        {
          "internalType": "address",
          "name": "disputer",
          "type": "address"
        },
        {
          "internalType": "string",
          "name": "reason",
          "type": "string"
        },
        {
          "internalType": "uint256",
          "name": "timestamp",
          "type": "uint256"
        },
        {
          "internalType": "bool",
          "name": "resolved",
          "type": "bool"
        }
      ],
      "stateMutability": "view",
      "type": "function"
    },
    {
      "inputs": [
        {
          "internalType": "uint256",
          "name": "agentId",
          "type": "uint256"
        }
      ],
      "name": "getAgentValidations",
      "outputs": [
        {
          "internalType": "uint256[]",
          "name": "validationIds",
          "type": "uint256[]"
        }
      ],
      "stateMutability": "view",
      "type": "function"
    },
    {
      "inputs": [
        {
          "internalType": "uint256",
          "name": "validationId",
          "type": "uint256"
        }
      ],
      "name": "getValidation",
      "outputs": [
        {
          "components": [
            {
              "internalType": "uint256",
              "name": "agentId",
              "type": "uint256"
            },
            {
              "internalType": "address",
              "name": "validator",
              "type": "address"
            },
            {
              "internalType": "enum ValidationRegistry.ValidationStatus",
              "name": "status",
              "type": "uint8"
            },
            {
              "internalType": "string",
              "name": "proofURI",
              "type": "string"
            },
            {
              "internalType": "string",
              "name": "notes",
              "type": "string"
            },
            {
              "internalType": "uint256",
              "name": "timestamp",
              "type": "uint256"
            }
          ],
          "internalType": "struct ValidationRegistry.Validation",
          "name": "validation",
          "type": "tuple"
        }
      ],
      "stateMutability": "view",
      "type": "function"
    },
    {
      "inputs": [
        {
          "internalType": "uint256",
          "name": "validationId",
          "type": "uint256"
        },
        {
          "internalType": "string",
          "name": "reason",
          "type": "string"
        }
      ],
      "name": "raiseDispute",
      "outputs": [],
      "stateMutability": "nonpayable",
      "type": "function"
    },
    {
      "inputs": [
        {
          "internalType": "uint256",
          "name": "validationId",
          "type": "uint256"
        },
        {
          "internalType": "enum ValidationRegistry.ValidationStatus",
          "name": "finalStatus",
          "type": "uint8"
        }
      ],
      "name": "resolveDispute",
      "outputs": [],
      "stateMutability": "nonpayable",
      "type": "function"
    },
    {
      "inputs": [
        {
          "internalType": "uint256",
          "name": "agentId",
          "type": "uint256"
        },
        {
          "internalType": "enum ValidationRegistry.ValidationStatus",
          "name": "status",
          "type": "uint8"
        },
        {
          "internalType": "string",
          "name": "proofURI",
          "type": "string"
        },
        {
          "internalType": "string",
          "name": "notes",
          "type": "string"
        }
      ],
      "name": "submitValidation",
      "outputs": [
        {
          "internalType": "uint256",
          "name": "validationId",
          "type": "uint256"
        }
      ],
      "stateMutability": "nonpayable",
      "type": "function"
    },
    {
      "inputs": [
        {
          "internalType": "uint256",
          "name": "validationId",
          "type": "uint256"
        },
        {
          "internalType": "enum ValidationRegistry.ValidationStatus",
          "name": "newStatus",
          "type": "uint8"
        }
      ],
      "name": "updateValidationStatus",
      "outputs": [],
      "stateMutability": "nonpayable",
      "type": "function"
    },
    {
      "inputs": [
        {
          "internalType": "uint256",
          "name": "",
          "type": "uint256"
        }
      ],
      "name": "validations",
      "outputs": [
        {
          "internalType": "uint256",
          "name": "agentId",
          "type": "uint256"
        },
        {
          "internalType": "address",
          "name": "validator",
          "type": "address"
        },
        {
          "internalType": "enum ValidationRegistry.ValidationStatus",
          "name": "status",
          "type": "uint8"
        },
        {
          "internalType": "string",
          "name": "proofURI",
          "type": "string"
        },
        {
          "internalType": "string",
          "name": "notes",
          "type": "string"
        },
        {
          "internalType": "uint256",
          "name": "timestamp",
          "type": "uint256"
        }
      ],
      "stateMutability": "view",
      "type": "function"
    }
  ],
  "transactionHash": "0x4e4c26553139f76ab806099c98f9c90f92a538acb7d9d9ef5c894364120019f3",
  "args": [],
  "numDeployments": 2,
  "solcInputHash": "1a6a9ab9f253dba114579a627a9a11ef",
  "bytecode": "0x6080604052600160045534801561001557600080fd5b5060016000556111758061002a6000396000f3fe608060405234801561001057600080fd5b50600436106100935760003560e01c80638d5d0c2d116100665780638d5d0c2d1461010d578063b62891f01461012d578063d037a7a31461014e578063e55e421114610173578063f75213b41461018657600080fd5b8063564a565d146100985780635aef573c146100c55780636957210e146100da5780638392ae5c146100ed575b600080fd5b6100ab6100a6366004610baf565b610199565b6040516100bc959493929190610c0e565b60405180910390f35b6100d86100d3366004610cf4565b61025e565b005b6100d86100e8366004610d4f565b61044f565b6101006100fb366004610baf565b61053c565b6040516100bc9190610db3565b61012061011b366004610baf565b610712565b6040516100bc9190610e32565b61014061013b366004610e76565b610774565b6040519081526020016100bc565b61016161015c366004610baf565b6108e9565b6040516100bc96959493929190610ef4565b6100d8610181366004610d4f565b610a3f565b610140610194366004610f4f565b610b54565b60036020526000908152604090208054600182015460028301805492936001600160a01b03909216926101cb90610f71565b80601f01602080910402602001604051908101604052809291908181526020018280546101f790610f71565b80156102445780601f1061021957610100808354040283529160200191610244565b820191906000526020600020905b81548152906001019060200180831161022757829003601f168201915b50505050600383015460049093015491929160ff16905085565b610266610b85565b6000828152600160205260409020600401546102da5760405162461bcd60e51b815260206004820152602860248201527f56616c69646174696f6e52656769737472793a2056616c69646174696f6e206e6044820152671bdd08199bdd5b9960c21b60648201526084015b60405180910390fd5b6000828152600360205260409020600101546001600160a01b03161561034d5760405162461bcd60e51b815260206004820152602260248201527f56616c69646174696f6e52656769737472793a20446973707574652065786973604482015261747360f01b60648201526084016102d1565b6040805160a08101825283815233602080830191825282840185815242606085015260006080850181905287815260039092529390208251815590516001820180546001600160a01b0319166001600160a01b03909216919091179055915190919060028201906103be9082610ffa565b50606082015160038201556080909101516004909101805460ff191691151591909117905560008281526001602081905260409182902001805460ff60a01b1916600360a01b17905551339083907f1b84372106d77c6daea0dda35bbc0229d10a83f58ec899092884925193682341906104399085906110ba565b60405180910390a361044b6001600055565b5050565b610457610b85565b6000828152600160208190526040909120908101546001600160a01b031633146104cd5760405162461bcd60e51b815260206004820152602160248201527f56616c69646174696f6e52656769737472793a204e6f742076616c696461746f6044820152603960f91b60648201526084016102d1565b60018101805483919060ff60a01b1916600160a01b8360038111156104f4576104f4610d7b565b0217905550827f96787237536d2476589845a20c783a3951a784f0d502617bb427a4ee7815804f8360405161052991906110d4565b60405180910390a25061044b6001600055565b6105756040805160c081018252600080825260208201819052909182019081526020016060815260200160608152602001600081525090565b600082815260016020818152604092839020835160c08101855281548152928101546001600160a01b038116928401929092529192830190600160a01b900460ff1660038111156105c8576105c8610d7b565b60038111156105d9576105d9610d7b565b81526020016002820180546105ed90610f71565b80601f016020809104026020016040519081016040528092919081815260200182805461061990610f71565b80156106665780601f1061063b57610100808354040283529160200191610666565b820191906000526020600020905b81548152906001019060200180831161064957829003601f168201915b5050505050815260200160038201805461067f90610f71565b80601f01602080910402602001604051908101604052809291908181526020018280546106ab90610f71565b80156106f85780601f106106cd576101008083540402835291602001916106f8565b820191906000526020600020905b8154815290600101906020018083116106db57829003601f168201915b505050505081526020016004820154815250509050919050565b60008181526002602090815260409182902080548351818402810184019094528084526060939283018282801561076857602002820191906000526020600020905b815481526020019060010190808311610754575b50505050509050919050565b600061077e610b85565b6004805490600061078e836110e8565b909155506040805160c08101825287815233602082015291925081018560038111156107bc576107bc610d7b565b815260208082018690526040808301869052426060909301929092526000848152600180835290839020845181559184015190820180546001600160a01b039092166001600160a01b031983168117825593850151929390916001600160a81b03191617600160a01b83600381111561083757610837610d7b565b0217905550606082015160028201906108509082610ffa565b50608082015160038201906108659082610ffa565b5060a09190910151600490910155600085815260026020908152604080832080546001810182559084529190922001829055513390869083907f55ec8ac04688d52e6ae1eaaebb586569cfced4fbe52934e31ad637af96dc20ef906108cf9089908990429061110f565b60405180910390a46108e16001600055565b949350505050565b60016020819052600091825260409091208054918101546002820180546001600160a01b03831693600160a01b90930460ff1692919061092890610f71565b80601f016020809104026020016040519081016040528092919081815260200182805461095490610f71565b80156109a15780601f10610976576101008083540402835291602001916109a1565b820191906000526020600020905b81548152906001019060200180831161098457829003601f168201915b5050505050908060030180546109b690610f71565b80601f01602080910402602001604051908101604052809291908181526020018280546109e290610f71565b8015610a2f5780601f10610a0457610100808354040283529160200191610a2f565b820191906000526020600020905b815481529060010190602001808311610a1257829003601f168201915b5050505050908060040154905086565b610a47610b85565b600082815260036020526040902060018101546001600160a01b0316610aaf5760405162461bcd60e51b815260206004820152601e60248201527f56616c69646174696f6e52656769737472793a204e6f2064697370757465000060448201526064016102d1565b600481015460ff1615610b105760405162461bcd60e51b8152602060048201526024808201527f56616c69646174696f6e52656769737472793a20416c7265616479207265736f6044820152631b1d995960e21b60648201526084016102d1565b60048101805460ff19166001908117909155600084815260208290526040902001805483919060ff60a01b1916600160a01b8360038111156104f4576104f4610d7b565b60026020528160005260406000208181548110610b7057600080fd5b90600052602060002001600091509150505481565b600260005403610ba857604051633ee5aeb560e01b815260040160405180910390fd5b6002600055565b600060208284031215610bc157600080fd5b5035919050565b6000815180845260005b81811015610bee57602081850181015186830182015201610bd2565b506000602082860101526020601f19601f83011685010191505092915050565b8581526001600160a01b038516602082015260a060408201819052600090610c3890830186610bc8565b6060830194909452509015156080909101529392505050565b634e487b7160e01b600052604160045260246000fd5b600082601f830112610c7857600080fd5b813567ffffffffffffffff80821115610c9357610c93610c51565b604051601f8301601f19908116603f01168101908282118183101715610cbb57610cbb610c51565b81604052838152866020858801011115610cd457600080fd5b836020870160208301376000602085830101528094505050505092915050565b60008060408385031215610d0757600080fd5b82359150602083013567ffffffffffffffff811115610d2557600080fd5b610d3185828601610c67565b9150509250929050565b803560048110610d4a57600080fd5b919050565b60008060408385031215610d6257600080fd5b82359150610d7260208401610d3b565b90509250929050565b634e487b7160e01b600052602160045260246000fd5b60048110610daf57634e487b7160e01b600052602160045260246000fd5b9052565b602081528151602082015260018060a01b03602083015116604082015260006040830151610de46060840182610d91565b50606083015160c06080840152610dfe60e0840182610bc8565b90506080840151601f198483030160a0850152610e1b8282610bc8565b91505060a084015160c08401528091505092915050565b6020808252825182820181905260009190848201906040850190845b81811015610e6a57835183529284019291840191600101610e4e565b50909695505050505050565b60008060008060808587031215610e8c57600080fd5b84359350610e9c60208601610d3b565b9250604085013567ffffffffffffffff80821115610eb957600080fd5b610ec588838901610c67565b93506060870135915080821115610edb57600080fd5b50610ee887828801610c67565b91505092959194509250565b8681526001600160a01b0386166020820152610f136040820186610d91565b60c060608201526000610f2960c0830186610bc8565b8281036080840152610f3b8186610bc8565b9150508260a0830152979650505050505050565b60008060408385031215610f6257600080fd5b50508035926020909101359150565b600181811c90821680610f8557607f821691505b602082108103610fa557634e487b7160e01b600052602260045260246000fd5b50919050565b601f821115610ff557600081815260208120601f850160051c81016020861015610fd25750805b601f850160051c820191505b81811015610ff157828155600101610fde565b5050505b505050565b815167ffffffffffffffff81111561101457611014610c51565b611028816110228454610f71565b84610fab565b602080601f83116001811461105d57600084156110455750858301515b600019600386901b1c1916600185901b178555610ff1565b600085815260208120601f198616915b8281101561108c5788860151825594840194600190910190840161106d565b50858210156110aa5787850151600019600388901b60f8161c191681555b5050505050600190811b01905550565b6020815260006110cd6020830184610bc8565b9392505050565b602081016110e28284610d91565b92915050565b60006001820161110857634e487b7160e01b600052601160045260246000fd5b5060010190565b6111198185610d91565b60606020820152600061112f6060830185610bc8565b905082604083015294935050505056fea2646970667358221220a718f586ec7a6a0cb0317c7d6161339977814bd7ef5aa99f92956a4c3dc4076c64736f6c63430008140033",
  "devdoc": {
    "details": "管理 Agent 的验证、证明和争议使用 OpenZeppelin ReentrancyGuard 防止重入攻击",
    "errors": {
      "ReentrancyGuardReentrantCall()": [
        {
          "details": "Unauthorized reentrant call."
        }
      ]
    },
    "kind": "dev",
    "methods": {
      "getAgentValidations(uint256)": {
        "params": {
          "agentId": "Agent ID"
        },
        "returns": {
          "validationIds": "验证 ID 数组"
        }
      },
      "getValidation(uint256)": {
        "params": {
          "validationId": "验证 ID"
        },
        "returns": {
          "validation": "验证结构"
        }
      },
      "raiseDispute(uint256,string)": {
        "details": "使用 nonReentrant 防止重入攻击",
        "params": {
          "reason": "争议原因",
          "validationId": "验证 ID"
        }
      },
      "resolveDispute(uint256,uint8)": {
        "details": "使用 nonReentrant 防止重入攻击",
        "params": {
          "finalStatus": "最终状态",
          "validationId": "验证 ID"
        }
      },
      "submitValidation(uint256,uint8,string,string)": {
        "details": "使用 nonReentrant 防止重入攻击",
        "params": {
          "agentId": "Agent ID",
          "notes": "验证备注",
          "proofURI": "证明 URI",
          "status": "验证状态"
        },
        "returns": {
          "validationId": "验证 ID"
        }
      },
      "updateValidationStatus(uint256,uint8)": {
        "details": "使用 nonReentrant 防止重入攻击",
        "params": {
          "newStatus": "新状态",
          "validationId": "验证 ID"
        }
      }
    },
    "title": "ValidationRegistry",
    "version": 1
  },
  "userdoc": {
    "kind": "user",
    "methods": {
      "getAgentValidations(uint256)": {
        "notice": "获取 Agent 的所有验证"
      },
      "getValidation(uint256)": {
        "notice": "获取验证详情"
      },
      "raiseDispute(uint256,string)": {
        "notice": "对验证提出争议"
      },
      "resolveDispute(uint256,uint8)": {
        "notice": "解决争议"
      },
      "submitValidation(uint256,uint8,string,string)": {
        "notice": "提交 Agent 验证"
      },
      "updateValidationStatus(uint256,uint8)": {
        "notice": "更新验证状态"
      }
    },
    "notice": "EIP-8004 验证注册表",
    "version": 1
  },
  "storageLayout": {
    "storage": [
      {
        "astId": 441,
        "contract": "contracts/EIP8004/ValidationRegistry.sol:ValidationRegistry",
        "label": "_status",
        "offset": 0,
        "slot": "0",
        "type": "t_uint256"
      },
      {
        "astId": 1554,
        "contract": "contracts/EIP8004/ValidationRegistry.sol:ValidationRegistry",
        "label": "validations",
        "offset": 0,
        "slot": "1",
        "type": "t_mapping(t_uint256,t_struct(Validation)1538_storage)"
      },
      {
        "astId": 1559,
        "contract": "contracts/EIP8004/ValidationRegistry.sol:ValidationRegistry",
        "label": "agentValidations",
        "offset": 0,
        "slot": "2",
        "type": "t_mapping(t_uint256,t_array(t_uint256)dyn_storage)"
      },
      {
        "astId": 1564,
        "contract": "contracts/EIP8004/ValidationRegistry.sol:ValidationRegistry",
        "label": "disputes",
        "offset": 0,
        "slot": "3",
        "type": "t_mapping(t_uint256,t_struct(Dispute)1549_storage)"
      },
      {
        "astId": 1567,
        "contract": "contracts/EIP8004/ValidationRegistry.sol:ValidationRegistry",
        "label": "nextValidationId",
        "offset": 0,
        "slot": "4",
        "type": "t_uint256"
      }
    ],
    "types": {
      "t_address": {
        "encoding": "inplace",
        "label": "address",
        "numberOfBytes": "20"
      },
      "t_array(t_uint256)dyn_storage": {
        "base": "t_uint256",
        "encoding": "dynamic_array",
        "label": "uint256[]",
        "numberOfBytes": "32"
      },
      "t_bool": {
        "encoding": "inplace",
        "label": "bool",
        "numberOfBytes": "1"
      },
      "t_enum(ValidationStatus)1524": {
        "encoding": "inplace",
        "label": "enum ValidationRegistry.ValidationStatus",
        "numberOfBytes": "1"
      },
      "t_mapping(t_uint256,t_array(t_uint256)dyn_storage)": {
        "encoding": "mapping",
        "key": "t_uint256",
        "label": "mapping(uint256 => uint256[])",
        "numberOfBytes": "32",
        "value": "t_array(t_uint256)dyn_storage"
      },
      "t_mapping(t_uint256,t_struct(Dispute)1549_storage)": {
        "encoding": "mapping",
        "key": "t_uint256",
        "label": "mapping(uint256 => struct ValidationRegistry.Dispute)",
        "numberOfBytes": "32",
        "value": "t_struct(Dispute)1549_storage"
      },
      "t_mapping(t_uint256,t_struct(Validation)1538_storage)": {
        "encoding": "mapping",
        "key": "t_uint256",
        "label": "mapping(uint256 => struct ValidationRegistry.Validation)",
        "numberOfBytes": "32",
        "value": "t_struct(Validation)1538_storage"
      },
      "t_string_storage": {
        "encoding": "bytes",
        "label": "string",
        "numberOfBytes": "32"
      },
      "t_struct(Dispute)1549_storage": {
        "encoding": "inplace",
        "label": "struct ValidationRegistry.Dispute",
        "members": [
          {
            "astId": 1540,
            "contract": "contracts/EIP8004/ValidationRegistry.sol:ValidationRegistry",
            "label": "validationId",
            "offset": 0,
            "slot": "0",
            "type": "t_uint256"
          },
          {
            "astId": 1542,
            "contract": "contracts/EIP8004/ValidationRegistry.sol:ValidationRegistry",
            "label": "disputer",
            "offset": 0,
            "slot": "1",
            "type": "t_address"
          },
          {
            "astId": 1544,
            "contract": "contracts/EIP8004/ValidationRegistry.sol:ValidationRegistry",
            "label": "reason",
            "offset": 0,
            "slot": "2",
            "type": "t_string_storage"
          },
          {
            "astId": 1546,
            "contract": "contracts/EIP8004/ValidationRegistry.sol:ValidationRegistry",
            "label": "timestamp",
            "offset": 0,
            "slot": "3",
            "type": "t_uint256"
          },
          {
            "astId": 1548,
            "contract": "contracts/EIP8004/ValidationRegistry.sol:ValidationRegistry",
            "label": "resolved",
            "offset": 0,
            "slot": "4",
            "type": "t_bool"
          }
        ],
        "numberOfBytes": "160"
      },
      "t_struct(Validation)1538_storage": {
        "encoding": "inplace",
        "label": "struct ValidationRegistry.Validation",
        "members": [
          {
            "astId": 1526,
            "contract": "contracts/EIP8004/ValidationRegistry.sol:ValidationRegistry",
            "label": "agentId",
            "offset": 0,
            "slot": "0",
            "type": "t_uint256"
          },
          {
            "astId": 1528,
            "contract": "contracts/EIP8004/ValidationRegistry.sol:ValidationRegistry",
            "label": "validator",
            "offset": 0,
            "slot": "1",
            "type": "t_address"
          },
          {
            "astId": 1531,
            "contract": "contracts/EIP8004/ValidationRegistry.sol:ValidationRegistry",
            "label": "status",
            "offset": 20,
            "slot": "1",
            "type": "t_enum(ValidationStatus)1524"
          },
          {
            "astId": 1533,
            "contract": "contracts/EIP8004/ValidationRegistry.sol:ValidationRegistry",
            "label": "proofURI",
            "offset": 0,
            "slot": "2",
            "type": "t_string_storage"
          },
          {
            "astId": 1535,
            "contract": "contracts/EIP8004/ValidationRegistry.sol:ValidationRegistry",
            "label": "notes",
            "offset": 0,
            "slot": "3",
            "type": "t_string_storage"
          },
          {
            "astId": 1537,
            "contract": "contracts/EIP8004/ValidationRegistry.sol:ValidationRegistry",
            "label": "timestamp",
            "offset": 0,
            "slot": "4",
            "type": "t_uint256"
          }
        ],
        "numberOfBytes": "160"
      },
      "t_uint256": {
        "encoding": "inplace",
        "label": "uint256",
        "numberOfBytes": "32"
      }
    }
  }
}