{
  "address": "0x8558EcBb899c5eFF1d8fbbc7B4E79D09428302E4",
  "abi": [
    {
      "anonymous": false,
      "inputs": [
        {
          "indexed": true,
          "internalType": "uint256",
          "name": "validationId",
          "type": "uint256"
        },
        {
          "indexed": true,
          "internalType": "address",
          "name": "disputer",
          "type": "address"
        },
        {
          "indexed": false,
          "internalType": "string",
          "name": "reason",
          "type": "string"
        }
      ],
      "name": "DisputeRaised",
      "type": "event"
    },
    {
      "anonymous": false,
      "inputs": [
        {
          "indexed": true,
          "internalType": "uint256",
          "name": "validationId",
          "type": "uint256"
        },
        {
          "indexed": true,
          "internalType": "uint256",
          "name": "agentId",
          "type": "uint256"
        },
        {
          "indexed": true,
          "internalType": "address",
          "name": "validator",
          "type": "address"
        },
        {
          "indexed": false,
          "internalType": "enum ValidationRegistry.ValidationStatus",
          "name": "status",
          "type": "uint8"
        },
        {
          "indexed": false,
          "internalType": "string",
          "name": "proofURI",
          "type": "string"
        },
        {
          "indexed": false,
          "internalType": "uint256",
          "name": "timestamp",
          "type": "uint256"
        }
      ],
      "name": "ValidationSubmitted",
      "type": "event"
    },
    {
      "anonymous": false,
      "inputs": [
        {
          "indexed": true,
          "internalType": "uint256",
          "name": "validationId",
          "type": "uint256"
        },
        {
          "indexed": false,
          "internalType": "enum ValidationRegistry.ValidationStatus",
          "name": "newStatus",
          "type": "uint8"
        }
      ],
      "name": "ValidationUpdated",
      "type": "event"
    },
    {
      "inputs": [
        {
          "internalType": "uint256",
          "name": "",
          "type": "uint256"
        },
        {
          "internalType": "uint256",
          "name": "",
          "type": "uint256"
        }
      ],
      "name": "agentValidations",
      "outputs": [
        {
          "internalType": "uint256",
          "name": "",
          "type": "uint256"
        }
      ],
      "stateMutability": "view",
      "type": "function"
    },
    {
      "inputs": [
        {
          "internalType": "uint256",
          "name": "",
          "type": "uint256"
        }
      ],
      "name": "disputes",
      "outputs": [
        {
          "internalType": "uint256",
          "name": "validationId",
          "type": "uint256"
        },
        {
          "internalType": "address",
          "name": "disputer",
          "type": "address"
        },
        {
          "internalType": "string",
          "name": "reason",
          "type": "string"
        },
        {
          "internalType": "uint256",
          "name": "timestamp",
          "type": "uint256"
        },
        {
          "internalType": "bool",
          "name": "resolved",
          "type": "bool"
        }
      ],
      "stateMutability": "view",
      "type": "function"
    },
    {
      "inputs": [
        {
          "internalType": "uint256",
          "name": "agentId",
          "type": "uint256"
        }
      ],
      "name": "getAgentValidations",
      "outputs": [
        {
          "internalType": "uint256[]",
          "name": "validationIds",
          "type": "uint256[]"
        }
      ],
      "stateMutability": "view",
      "type": "function"
    },
    {
      "inputs": [
        {
          "internalType": "uint256",
          "name": "validationId",
          "type": "uint256"
        }
      ],
      "name": "getValidation",
      "outputs": [
        {
          "components": [
            {
              "internalType": "uint256",
              "name": "agentId",
              "type": "uint256"
            },
            {
              "internalType": "address",
              "name": "validator",
              "type": "address"
            },
            {
              "internalType": "enum ValidationRegistry.ValidationStatus",
              "name": "status",
              "type": "uint8"
            },
            {
              "internalType": "string",
              "name": "proofURI",
              "type": "string"
            },
            {
              "internalType": "string",
              "name": "notes",
              "type": "string"
            },
            {
              "internalType": "uint256",
              "name": "timestamp",
              "type": "uint256"
            }
          ],
          "internalType": "struct ValidationRegistry.Validation",
          "name": "validation",
          "type": "tuple"
        }
      ],
      "stateMutability": "view",
      "type": "function"
    },
    {
      "inputs": [
        {
          "internalType": "uint256",
          "name": "validationId",
          "type": "uint256"
        },
        {
          "internalType": "string",
          "name": "reason",
          "type": "string"
        }
      ],
      "name": "raiseDispute",
      "outputs": [],
      "stateMutability": "nonpayable",
      "type": "function"
    },
    {
      "inputs": [
        {
          "internalType": "uint256",
          "name": "validationId",
          "type": "uint256"
        },
        {
          "internalType": "enum ValidationRegistry.ValidationStatus",
          "name": "finalStatus",
          "type": "uint8"
        }
      ],
      "name": "resolveDispute",
      "outputs": [],
      "stateMutability": "nonpayable",
      "type": "function"
    },
    {
      "inputs": [
        {
          "internalType": "uint256",
          "name": "agentId",
          "type": "uint256"
        },
        {
          "internalType": "enum ValidationRegistry.ValidationStatus",
          "name": "status",
          "type": "uint8"
        },
        {
          "internalType": "string",
          "name": "proofURI",
          "type": "string"
        },
        {
          "internalType": "string",
          "name": "notes",
          "type": "string"
        }
      ],
      "name": "submitValidation",
      "outputs": [
        {
          "internalType": "uint256",
          "name": "validationId",
          "type": "uint256"
        }
      ],
      "stateMutability": "nonpayable",
      "type": "function"
    },
    {
      "inputs": [
        {
          "internalType": "uint256",
          "name": "validationId",
          "type": "uint256"
        },
        {
          "internalType": "enum ValidationRegistry.ValidationStatus",
          "name": "newStatus",
          "type": "uint8"
        }
      ],
      "name": "updateValidationStatus",
      "outputs": [],
      "stateMutability": "nonpayable",
      "type": "function"
    },
    {
      "inputs": [
        {
          "internalType": "uint256",
          "name": "",
          "type": "uint256"
        }
      ],
      "name": "validations",
      "outputs": [
        {
          "internalType": "uint256",
          "name": "agentId",
          "type": "uint256"
        },
        {
          "internalType": "address",
          "name": "validator",
          "type": "address"
        },
        {
          "internalType": "enum ValidationRegistry.ValidationStatus",
          "name": "status",
          "type": "uint8"
        },
        {
          "internalType": "string",
          "name": "proofURI",
          "type": "string"
        },
        {
          "internalType": "string",
          "name": "notes",
          "type": "string"
        },
        {
          "internalType": "uint256",
          "name": "timestamp",
          "type": "uint256"
        }
      ],
      "stateMutability": "view",
      "type": "function"
    }
  ],
  "transactionHash": "0xa90c7dfbb4cef2db0827197467b9ba9fba4c5e0beb72081726c69de834691725",
  "args": [],
  "numDeployments": 1,
  "solcInputHash": "82532c12664fad80c4d3b76a7b6c9ce6",
  "bytecode": "0x6080604052600160035534801561001557600080fd5b5061110d806100256000396000f3fe608060405234801561001057600080fd5b50600436106100935760003560e01c80638d5d0c2d116100665780638d5d0c2d1461010d578063b62891f01461012d578063d037a7a31461014e578063e55e421114610173578063f75213b41461018657600080fd5b8063564a565d146100985780635aef573c146100c55780636957210e146100da5780638392ae5c146100ed575b600080fd5b6100ab6100a6366004610b47565b610199565b6040516100bc959493929190610ba6565b60405180910390f35b6100d86100d3366004610c8c565b61025f565b005b6100d86100e8366004610ce7565b610440565b6101006100fb366004610b47565b61051d565b6040516100bc9190610d4b565b61012061011b366004610b47565b6106f4565b6040516100bc9190610dca565b61014061013b366004610e0e565b610756565b6040519081526020016100bc565b61016161015c366004610b47565b6108b2565b6040516100bc96959493929190610e8c565b6100d8610181366004610ce7565b610a09565b610140610194366004610ee7565b610b16565b600260208190526000918252604090912080546001820154928201805491936001600160a01b031692916101cc90610f09565b80601f01602080910402602001604051908101604052809291908181526020018280546101f890610f09565b80156102455780601f1061021a57610100808354040283529160200191610245565b820191906000526020600020905b81548152906001019060200180831161022857829003601f168201915b50505050600383015460049093015491929160ff16905085565b6000828152602081905260409020600401546102d35760405162461bcd60e51b815260206004820152602860248201527f56616c69646174696f6e52656769737472793a2056616c69646174696f6e206e6044820152671bdd08199bdd5b9960c21b60648201526084015b60405180910390fd5b6000828152600260205260409020600101546001600160a01b0316156103465760405162461bcd60e51b815260206004820152602260248201527f56616c69646174696f6e52656769737472793a20446973707574652065786973604482015261747360f01b60648201526084016102ca565b6040805160a081018252838152336020808301918252828401858152426060850152600060808501819052878152600292839052949094208351815591516001830180546001600160a01b0319166001600160a01b03909216919091179055925191929091908201906103b99082610f92565b50606082015160038201556080909101516004909101805460ff191691151591909117905560008281526020819052604090819020600101805460ff60a01b1916600360a01b17905551339083907f1b84372106d77c6daea0dda35bbc0229d10a83f58ec89909288492519368234190610434908590611052565b60405180910390a35050565b600082815260208190526040902060018101546001600160a01b031633146104b45760405162461bcd60e51b815260206004820152602160248201527f56616c69646174696f6e52656769737472793a204e6f742076616c696461746f6044820152603960f91b60648201526084016102ca565b60018101805483919060ff60a01b1916600160a01b8360038111156104db576104db610d13565b0217905550827f96787237536d2476589845a20c783a3951a784f0d502617bb427a4ee7815804f83604051610510919061106c565b60405180910390a2505050565b6105566040805160c081018252600080825260208201819052909182019081526020016060815260200160608152602001600081525090565b60008281526020818152604091829020825160c0810184528154815260018201546001600160a01b0381169382019390935292909190830190600160a01b900460ff1660038111156105aa576105aa610d13565b60038111156105bb576105bb610d13565b81526020016002820180546105cf90610f09565b80601f01602080910402602001604051908101604052809291908181526020018280546105fb90610f09565b80156106485780601f1061061d57610100808354040283529160200191610648565b820191906000526020600020905b81548152906001019060200180831161062b57829003601f168201915b5050505050815260200160038201805461066190610f09565b80601f016020809104026020016040519081016040528092919081815260200182805461068d90610f09565b80156106da5780601f106106af576101008083540402835291602001916106da565b820191906000526020600020905b8154815290600101906020018083116106bd57829003601f168201915b505050505081526020016004820154815250509050919050565b60008181526001602090815260409182902080548351818402810184019094528084526060939283018282801561074a57602002820191906000526020600020905b815481526020019060010190808311610736575b50505050509050919050565b600380546000918261076783611080565b909155506040805160c081018252878152336020820152919250810185600381111561079557610795610d13565b81526020808201869052604080830186905242606090930192909252600084815280825282902083518155908301516001820180546001600160a01b039092166001600160a01b031983168117825593850151929390916001600160a81b03191617600160a01b83600381111561080e5761080e610d13565b0217905550606082015160028201906108279082610f92565b506080820151600382019061083c9082610f92565b5060a091909101516004909101556000858152600160208181526040808420805493840181558452922001829055513390869083907f55ec8ac04688d52e6ae1eaaebb586569cfced4fbe52934e31ad637af96dc20ef906108a2908990899042906110a7565b60405180910390a4949350505050565b60006020819052908152604090208054600182015460028301805492936001600160a01b03831693600160a01b90930460ff16929091906108f290610f09565b80601f016020809104026020016040519081016040528092919081815260200182805461091e90610f09565b801561096b5780601f106109405761010080835404028352916020019161096b565b820191906000526020600020905b81548152906001019060200180831161094e57829003601f168201915b50505050509080600301805461098090610f09565b80601f01602080910402602001604051908101604052809291908181526020018280546109ac90610f09565b80156109f95780601f106109ce576101008083540402835291602001916109f9565b820191906000526020600020905b8154815290600101906020018083116109dc57829003601f168201915b5050505050908060040154905086565b600082815260026020526040902060018101546001600160a01b0316610a715760405162461bcd60e51b815260206004820152601e60248201527f56616c69646174696f6e52656769737472793a204e6f2064697370757465000060448201526064016102ca565b600481015460ff1615610ad25760405162461bcd60e51b8152602060048201526024808201527f56616c69646174696f6e52656769737472793a20416c7265616479207265736f6044820152631b1d995960e21b60648201526084016102ca565b60048101805460ff19166001908117909155600084815260208190526040902001805483919060ff60a01b1916600160a01b8360038111156104db576104db610d13565b60016020528160005260406000208181548110610b3257600080fd5b90600052602060002001600091509150505481565b600060208284031215610b5957600080fd5b5035919050565b6000815180845260005b81811015610b8657602081850181015186830182015201610b6a565b506000602082860101526020601f19601f83011685010191505092915050565b8581526001600160a01b038516602082015260a060408201819052600090610bd090830186610b60565b6060830194909452509015156080909101529392505050565b634e487b7160e01b600052604160045260246000fd5b600082601f830112610c1057600080fd5b813567ffffffffffffffff80821115610c2b57610c2b610be9565b604051601f8301601f19908116603f01168101908282118183101715610c5357610c53610be9565b81604052838152866020858801011115610c6c57600080fd5b836020870160208301376000602085830101528094505050505092915050565b60008060408385031215610c9f57600080fd5b82359150602083013567ffffffffffffffff811115610cbd57600080fd5b610cc985828601610bff565b9150509250929050565b803560048110610ce257600080fd5b919050565b60008060408385031215610cfa57600080fd5b82359150610d0a60208401610cd3565b90509250929050565b634e487b7160e01b600052602160045260246000fd5b60048110610d4757634e487b7160e01b600052602160045260246000fd5b9052565b602081528151602082015260018060a01b03602083015116604082015260006040830151610d7c6060840182610d29565b50606083015160c06080840152610d9660e0840182610b60565b90506080840151601f198483030160a0850152610db38282610b60565b91505060a084015160c08401528091505092915050565b6020808252825182820181905260009190848201906040850190845b81811015610e0257835183529284019291840191600101610de6565b50909695505050505050565b60008060008060808587031215610e2457600080fd5b84359350610e3460208601610cd3565b9250604085013567ffffffffffffffff80821115610e5157600080fd5b610e5d88838901610bff565b93506060870135915080821115610e7357600080fd5b50610e8087828801610bff565b91505092959194509250565b8681526001600160a01b0386166020820152610eab6040820186610d29565b60c060608201526000610ec160c0830186610b60565b8281036080840152610ed38186610b60565b9150508260a0830152979650505050505050565b60008060408385031215610efa57600080fd5b50508035926020909101359150565b600181811c90821680610f1d57607f821691505b602082108103610f3d57634e487b7160e01b600052602260045260246000fd5b50919050565b601f821115610f8d57600081815260208120601f850160051c81016020861015610f6a5750805b601f850160051c820191505b81811015610f8957828155600101610f76565b5050505b505050565b815167ffffffffffffffff811115610fac57610fac610be9565b610fc081610fba8454610f09565b84610f43565b602080601f831160018114610ff55760008415610fdd5750858301515b600019600386901b1c1916600185901b178555610f89565b600085815260208120601f198616915b8281101561102457888601518255948401946001909101908401611005565b50858210156110425787850151600019600388901b60f8161c191681555b5050505050600190811b01905550565b6020815260006110656020830184610b60565b9392505050565b6020810161107a8284610d29565b92915050565b6000600182016110a057634e487b7160e01b600052601160045260246000fd5b5060010190565b6110b18185610d29565b6060602082015260006110c76060830185610b60565b905082604083015294935050505056fea2646970667358221220b74d3dc7a7bf8892b67c256dd3cad21854e81f5a59a0faac7504dec309e3866e64736f6c63430008140033",
  "devdoc": {
    "details": "管理 Agent 的验证、证明和争议",
    "kind": "dev",
    "methods": {
      "getAgentValidations(uint256)": {
        "params": {
          "agentId": "Agent ID"
        },
        "returns": {
          "validationIds": "验证 ID 数组"
        }
      },
      "getValidation(uint256)": {
        "params": {
          "validationId": "验证 ID"
        },
        "returns": {
          "validation": "验证结构"
        }
      },
      "raiseDispute(uint256,string)": {
        "params": {
          "reason": "争议原因",
          "validationId": "验证 ID"
        }
      },
      "resolveDispute(uint256,uint8)": {
        "params": {
          "finalStatus": "最终状态",
          "validationId": "验证 ID"
        }
      },
      "submitValidation(uint256,uint8,string,string)": {
        "params": {
          "agentId": "Agent ID",
          "notes": "验证备注",
          "proofURI": "证明 URI",
          "status": "验证状态"
        },
        "returns": {
          "validationId": "验证 ID"
        }
      },
      "updateValidationStatus(uint256,uint8)": {
        "params": {
          "newStatus": "新状态",
          "validationId": "验证 ID"
        }
      }
    },
    "title": "ValidationRegistry",
    "version": 1
  },
  "userdoc": {
    "kind": "user",
    "methods": {
      "getAgentValidations(uint256)": {
        "notice": "获取 Agent 的所有验证"
      },
      "getValidation(uint256)": {
        "notice": "获取验证详情"
      },
      "raiseDispute(uint256,string)": {
        "notice": "对验证提出争议"
      },
      "resolveDispute(uint256,uint8)": {
        "notice": "解决争议"
      },
      "submitValidation(uint256,uint8,string,string)": {
        "notice": "提交 Agent 验证"
      },
      "updateValidationStatus(uint256,uint8)": {
        "notice": "更新验证状态"
      }
    },
    "notice": "EIP-8004 验证注册表",
    "version": 1
  },
  "storageLayout": {
    "storage": [
      {
        "astId": 904,
        "contract": "contracts/EIP8004/ValidationRegistry.sol:ValidationRegistry",
        "label": "validations",
        "offset": 0,
        "slot": "0",
        "type": "t_mapping(t_uint256,t_struct(Validation)888_storage)"
      },
      {
        "astId": 909,
        "contract": "contracts/EIP8004/ValidationRegistry.sol:ValidationRegistry",
        "label": "agentValidations",
        "offset": 0,
        "slot": "1",
        "type": "t_mapping(t_uint256,t_array(t_uint256)dyn_storage)"
      },
      {
        "astId": 914,
        "contract": "contracts/EIP8004/ValidationRegistry.sol:ValidationRegistry",
        "label": "disputes",
        "offset": 0,
        "slot": "2",
        "type": "t_mapping(t_uint256,t_struct(Dispute)899_storage)"
      },
      {
        "astId": 917,
        "contract": "contracts/EIP8004/ValidationRegistry.sol:ValidationRegistry",
        "label": "nextValidationId",
        "offset": 0,
        "slot": "3",
        "type": "t_uint256"
      }
    ],
    "types": {
      "t_address": {
        "encoding": "inplace",
        "label": "address",
        "numberOfBytes": "20"
      },
      "t_array(t_uint256)dyn_storage": {
        "base": "t_uint256",
        "encoding": "dynamic_array",
        "label": "uint256[]",
        "numberOfBytes": "32"
      },
      "t_bool": {
        "encoding": "inplace",
        "label": "bool",
        "numberOfBytes": "1"
      },
      "t_enum(ValidationStatus)874": {
        "encoding": "inplace",
        "label": "enum ValidationRegistry.ValidationStatus",
        "numberOfBytes": "1"
      },
      "t_mapping(t_uint256,t_array(t_uint256)dyn_storage)": {
        "encoding": "mapping",
        "key": "t_uint256",
        "label": "mapping(uint256 => uint256[])",
        "numberOfBytes": "32",
        "value": "t_array(t_uint256)dyn_storage"
      },
      "t_mapping(t_uint256,t_struct(Dispute)899_storage)": {
        "encoding": "mapping",
        "key": "t_uint256",
        "label": "mapping(uint256 => struct ValidationRegistry.Dispute)",
        "numberOfBytes": "32",
        "value": "t_struct(Dispute)899_storage"
      },
      "t_mapping(t_uint256,t_struct(Validation)888_storage)": {
        "encoding": "mapping",
        "key": "t_uint256",
        "label": "mapping(uint256 => struct ValidationRegistry.Validation)",
        "numberOfBytes": "32",
        "value": "t_struct(Validation)888_storage"
      },
      "t_string_storage": {
        "encoding": "bytes",
        "label": "string",
        "numberOfBytes": "32"
      },
      "t_struct(Dispute)899_storage": {
        "encoding": "inplace",
        "label": "struct ValidationRegistry.Dispute",
        "members": [
          {
            "astId": 890,
            "contract": "contracts/EIP8004/ValidationRegistry.sol:ValidationRegistry",
            "label": "validationId",
            "offset": 0,
            "slot": "0",
            "type": "t_uint256"
          },
          {
            "astId": 892,
            "contract": "contracts/EIP8004/ValidationRegistry.sol:ValidationRegistry",
            "label": "disputer",
            "offset": 0,
            "slot": "1",
            "type": "t_address"
          },
          {
            "astId": 894,
            "contract": "contracts/EIP8004/ValidationRegistry.sol:ValidationRegistry",
            "label": "reason",
            "offset": 0,
            "slot": "2",
            "type": "t_string_storage"
          },
          {
            "astId": 896,
            "contract": "contracts/EIP8004/ValidationRegistry.sol:ValidationRegistry",
            "label": "timestamp",
            "offset": 0,
            "slot": "3",
            "type": "t_uint256"
          },
          {
            "astId": 898,
            "contract": "contracts/EIP8004/ValidationRegistry.sol:ValidationRegistry",
            "label": "resolved",
            "offset": 0,
            "slot": "4",
            "type": "t_bool"
          }
        ],
        "numberOfBytes": "160"
      },
      "t_struct(Validation)888_storage": {
        "encoding": "inplace",
        "label": "struct ValidationRegistry.Validation",
        "members": [
          {
            "astId": 876,
            "contract": "contracts/EIP8004/ValidationRegistry.sol:ValidationRegistry",
            "label": "agentId",
            "offset": 0,
            "slot": "0",
            "type": "t_uint256"
          },
          {
            "astId": 878,
            "contract": "contracts/EIP8004/ValidationRegistry.sol:ValidationRegistry",
            "label": "validator",
            "offset": 0,
            "slot": "1",
            "type": "t_address"
          },
          {
            "astId": 881,
            "contract": "contracts/EIP8004/ValidationRegistry.sol:ValidationRegistry",
            "label": "status",
            "offset": 20,
            "slot": "1",
            "type": "t_enum(ValidationStatus)874"
          },
          {
            "astId": 883,
            "contract": "contracts/EIP8004/ValidationRegistry.sol:ValidationRegistry",
            "label": "proofURI",
            "offset": 0,
            "slot": "2",
            "type": "t_string_storage"
          },
          {
            "astId": 885,
            "contract": "contracts/EIP8004/ValidationRegistry.sol:ValidationRegistry",
            "label": "notes",
            "offset": 0,
            "slot": "3",
            "type": "t_string_storage"
          },
          {
            "astId": 887,
            "contract": "contracts/EIP8004/ValidationRegistry.sol:ValidationRegistry",
            "label": "timestamp",
            "offset": 0,
            "slot": "4",
            "type": "t_uint256"
          }
        ],
        "numberOfBytes": "160"
      },
      "t_uint256": {
        "encoding": "inplace",
        "label": "uint256",
        "numberOfBytes": "32"
      }
    }
  }
}